:100000002020002025010000210100002101000026
:1000100000000000000000000000000000000000E0
:1000200000000000000000000000000021010000AE
:10003000000000000000000021010000210100007C
:100040002101000021010000210100002101000028
:100050002101000021010000210100002101000018
:100060002101000021010000210100002101000008
:1000700021010000210100002101000021010000F8
:1000800021010000210100002101000021010000E8
:1000900021010000210100002101000021010000D8
:1000A00021010000210100002101000000000000EA
:1000B0000000000010B5064C2378002B07D1054B3B
:1000C000002B02D0044800E000BF0123237010BDC4
:1000D00000000020000000006C050000084B10B577
:1000E000002B03D00749084800E000BF0748036819
:1000F000002B00D110BD064B002BFBD09847F9E731
:1001000000000000040000206C0500006C050000E9
:100110000000000010B5014B984710BDE901000038
:10012000FEE70000F8B5234A234B9A4209D0224B40
:10013000204A03E011681960043304321F498B42DE
:10014000F8D31F4B02E000221A6004331D4A934289
:10015000F9D31D4AFF211D4B8B439360FD3990233A
:100160005B001B4AD1501B4AD3780325AB430224C2
:100170002343D370D3780C27BB4308263343D37073
:10018000154B987B30229043202210439873997B23
:10019000B943314399739A7BAA4322439A730F4A16
:1001A000516880230B4353600D4B98470D4B984784
:1001B000FEE7C0466C0500000000002000000020A3
:1001C000000000202000002000ED00E00000000002
:1001D00000700041005000410048004100400041D3
:1001E000050500009D03000070B5154B9847C0221F
:1001F000D2058023DB0253619360124B8020C0053F
:1002000098621149996252255C5D01218C435C55CD
:10021000802424035461946098620C4C9C620135E4
:100220005C5D8C435C5580246405546194609862E5
:10023000074A9A625C201A5C8A431A5470BDC04611
:100240009902000000440041040000C0080000C002
:10025000001000C010B5044B1C68044B9847010007
:100260002000034B984710BD1C00002075020000C1
:100270009102000010B503006420584302300321AE
:10028000024B984783001B18580010BDED03000077
:100290000139FDD87047000010B5074B5A685A6005
:1002A000064B9847064B98470820064CA047064B3C
:1002B0009847F720A04710BD00400041E50200002C
:1002C00005030000CD02000051030000C30706D55E
:1002D000034B802252009A60832252025A60704778
:1002E000000C0040064B1A7AD2B21A725A7AD2B275
:1002F0005A729A7AD2B29A72DA7AD2B2DA727047B3
:10030000000400400F4B196A090C1A6A920F9207F9
:1003100009040D4801400A430C490A431A629A69CC
:1003200002210A439A611A7F1D310A401A77054B50
:10033000DB681B07FBD5034A136A80210B4313625A
:100340007047C046000800400000FF0F0203000095
:10035000024A936902218B43936170470008004071
:1003600080221203C023DB059A6170478022520568
:10037000C023DB055A61704780225205C023DB058C
:100380009A6170478022D202C023DB055A61704710
:100390008022D202C023DB059A61704770B50C4BF6
:1003A00098470C4B98470C4B98470C4B98470C4B75
:1003B00098470C4B9847FA256D0028000A4CA04737
:1003C000064B9847044B98472800A047EFE7C046E4
:1003D0001501000061030000790300009103000093
:1003E000850300006D030000550200000022430851
:1003F0008B4274D303098B425FD3030A8B4244D3ED
:10040000030B8B4228D3030C8B420DD3FF2209022E
:1004100012BA030C8B4202D31212090265D0030BED
:100420008B4219D300E0090AC30B8B4201D3CB03E3
:10043000C01A5241830B8B4201D38B03C01A524125
:10044000430B8B4201D34B03C01A5241030B8B4227
:1004500001D30B03C01A5241C30A8B4201D3CB0212
:10046000C01A5241830A8B4201D38B02C01A5241F7
:10047000430A8B4201D34B02C01A5241030A8B42FA
:1004800001D30B02C01A5241CDD2C3098B4201D312
:10049000CB01C01A524183098B4201D38B01C01A90
:1004A000524143098B4201D34B01C01A5241030907
:1004B0008B4201D30B01C01A5241C3088B4201D3B6
:1004C000CB00C01A524183088B4201D38B00C01A63
:1004D000524143088B4201D34B00C01A5241411A8A
:1004E00000D20146524110467047FFE701B5002097
:1004F00000F006F802BDC0460029F7D076E7704745
:100500007047C04670B500260C4D0D4C641BA410FE
:10051000A64209D1002600F019F80A4D0A4C641BC6
:10052000A410A64205D170BDB300EB589847013620
:10053000EEE7B300EB5898470136F2E758050000A4
:1005400058050000580500005C050000F8B5C046DD
:10055000F8BC08BC9E467047DD000000F8B5C046F8
:0C056000F8BC08BC9E467047B5000000C7
:00000001FF
