:10000000B8220020612F00005D2F00005D2F00004E
:1000100000000000000000000000000000000000E0
:100020000000000000000000000000005D2F000044
:1000300000000000000000005D2F00005D2F0000A8
:100040005D2F00005D2F00005D2F00005D2F000080
:100050005D2F00005D2F00005D2F00005D2F000070
:100060005D2F00005D2F00005D2F00005D2F000060
:100070005D2F00005D2F00005D2F00005D2F000050
:100080005D2F00005D2F00005D2F00005D2F000040
:100090005D2F00005D2F00005D2F00005D2F000030
:1000A0005D2F00005D2F00005D2F000000000000AC
:1000B0000000000010B5064C2378002B07D1054B3B
:1000C000002B02D0044800E000BF0123237010BDC4
:1000D000680000200000000068680000084B10B5B0
:1000E000002B03D00749084800E000BF0748036819
:1000F000002B00D110BD064B002BFBD09847F9E731
:10010000000000006C0000206868000068680000C3
:100110000000000010B5024B9847024B984710BDF5
:1001200059310000553F0000F0B5C64600B582B019
:100130006B46DD1D00232B706A460632137001AE3C
:1001400033707370344F3860C468407A01330721CC
:10015000A04704003B681A699046587A01232A0098
:100160000021C047C0B20419E4B23B682A781A7073
:100170001A699046587A01232A000121C047C0B26B
:100180002418E4B23B682A785A711A699046587A62
:1001900001232A000221C047C0B22418E4B23B6800
:1001A0002A789A711A699046587A01232A00032105
:1001B000C047C0B22418E4B23B682A78DA711A69E1
:1001C0009046587A01232A000621C047C0B224185D
:1001D000E4B23B682A781A721A699046587A022368
:1001E00032000421C047C0B22418E4B23A687378E0
:1001F0001B0231780B4353801669507A01232A0081
:100200000721B047C0B2201840B23B682A781A7163
:1002100002B004BC9046F0BD8400002070B505001B
:10022000064C2468002C06D0E668607A13000A00A9
:100230002900B04770BD7F204042FBE784000020CA
:1002400070B582B0050000226B46DA71134B1B6853
:10025000002B1CD01C69587A01236A4607320721FB
:10026000A047041E16D16B46DA1D15700B4B1B6898
:10027000DE68587A01230721B047C0B2001940B2A6
:10028000002802D1054B1B681D7102B070BD7F2094
:100290004042FAE701204042F7E7C04684000020D0
:1002A00070B582B0050001AB00221A705A70154B70
:1002B0001B68002B20D01B79002B19D10120404254
:1002C000002804D00F4B1B681B79002B17D10D4B56
:1002D0001B681E69587A01AC022322000821B0472E
:1002E0000122A2561202237813432B8002B070BD64
:1002F0000020054B9847E3E77F204042F6E70120C6
:100300004042F3E7840000204102000070B582B053
:10031000050001AB00221A705A70154B1B68002BA8
:1003200020D01B79002B19D101204042002804D095
:100330000F4B1B681B79002B17D10D4B1B681E69D7
:10034000587A01AC022322000A21B0470122A256AA
:100350001202237813432B8002B070BD0020054B9E
:100360009847E3E77F204042F6E701204042F3E769
:10037000840000204102000070B582B0050001AB8E
:1003800000221A705A70154B1B68002B20D01B7965
:10039000002B19D101204042002804D00F4B1B68CC
:1003A0001B79002B17D10D4B1B681E69587A01ACC5
:1003B000022322000C21B0470122A2561202237808
:1003C00013432B8002B070BD0020054B9847E3E734
:1003D0007F204042F6E701204042F3E784000020FE
:1003E0004102000030B583B00400062200216846B7
:1003F0001D4B98471D4B1B68002B2ED01B79002BE3
:1004000027D101204042002804D0184B1B681B79DB
:10041000002B25D1154B1B681D69587A06236A46A7
:100420000821A8476B4601229A5612021B781343F3
:1004300023806B4603229A5612029B7813436380F3
:100440006B4605229A5612021B791343A38003B010
:1004500030BD0020064B9847D5E77F204042F6E7A5
:1004600001204042F3E7C0462955000084000020E7
:100470004102000070B582B0050001AB00221A7085
:100480005A70154B1B68002B20D01B79002B19D1FB
:1004900001204042002804D00F4B1B681B79002B21
:1004A00017D10D4B1B681E69587A01AC022322003C
:1004B0000E21B0470122A2561202237813432B804B
:1004C00002B070BD0020054B9847E3E77F20404213
:1004D000F6E701204042F3E78400002041020000DB
:1004E00070B582B0050001AB00221A705A70154B2E
:1004F0001B68002B20D01B79002B19D10120404212
:10050000002804D00F4B1B681B79002B17D10D4B13
:100510001B681E69587A01AC022322001021B047E3
:100520000122A2561202237813432B8002B070BD21
:100530000020054B9847E3E77F204042F6E7012083
:100540004042F3E7840000204102000070B582B011
:10055000050001AB00221A705A70154B1B68002B66
:1005600020D01B79002B19D101204042002804D053
:100570000F4B1B681B79002B17D10D4B1B681E6995
:10058000587A01AC022322001221B0470122A25660
:100590001202237813432B8002B070BD0020054B5C
:1005A0009847E3E77F204042F6E701204042F3E727
:1005B000840000204102000030B583B00400062210
:1005C000002168461D4B98471D4B1B68002B2ED001
:1005D0001B79002B27D101204042002804D0184B62
:1005E0001B681B79002B25D1154B1B681D69587A98
:1005F00006236A460E21A8476B4601229A5612022C
:100600001B78134323806B4603229A5612029B7871
:10061000134363806B4605229A5612021B791343DB
:10062000A38003B030BD0020064B9847D5E77F205C
:100630004042F6E701204042F3E7C046295500005A
:10064000840000204102000070B582B0050001ABBB
:1006500000221A705A70154B1B68002B20D01B7992
:10066000002B19D101204042002804D00F4B1B68F9
:100670001B79002B17D10D4B1B681E69587A01ACF2
:10068000022322001421B0470122A256120223782D
:1006900013432B8002B070BD0020054B9847E3E761
:1006A0007F204042F6E701204042F3E7840000202B
:1006B0004102000070B582B0050001AB00221A7043
:1006C0005A70154B1B68002B20D01B79002B19D1B9
:1006D00001204042002804D00F4B1B681B79002BDF
:1006E00017D10D4B1B681E69587A01AC02232200FA
:1006F0001621B0470122A2561202237813432B8001
:1007000002B070BD0020054B9847E3E77F204042D0
:10071000F6E701204042F3E7840000204102000098
:1007200070B582B0050001AB00221A705A70154BEB
:100730001B68002B20D01B79002B19D101204042CF
:10074000002804D00F4B1B681B79002B17D10D4BD1
:100750001B681E69587A01AC022322001821B04799
:100760000122A2561202237813432B8002B070BDDF
:100770000020054B9847E3E77F204042F6E7012041
:100780004042F3E7840000204102000030B583B00E
:1007900004000622002168461D4B98471D4B1B682C
:1007A000002B2ED01B79002B27D10120404200289E
:1007B00004D0184B1B681B79002B25D1154B1B68E7
:1007C0001D69587A06236A461421A8476B46012200
:1007D0009A5612021B78134323806B4603229A56C3
:1007E00012029B78134363806B4605229A561202CD
:1007F0001B791343A38003B030BD0020064B9847FC
:10080000D5E77F204042F6E701204042F3E7C046AB
:1008100029550000840000204102000070B582B01C
:10082000050001AB00221A705A70154B1B68002B93
:1008300020D01B79002B19D101204042002804D080
:100840000F4B1B681B79002B17D10D4B1B681E69C2
:10085000587A01AC022322001A21B0470122A25685
:100860001202237813432B8002B070BD0020054B89
:100870009847E3E77F204042F6E701204042F3E754
:10088000840000204102000070B582B0050001AB79
:1008900000221A705A70154B1B68002B20D01B7950
:1008A000002B19D101204042002804D00F4B1B68B7
:1008B0001B79002B17D10D4B1B681E69587A01ACB0
:1008C000022322001C21B0470122A25612022378E3
:1008D00013432B8002B070BD0020054B9847E3E71F
:1008E0007F204042F6E701204042F3E784000020E9
:1008F0004102000070B582B0050001AB00221A7001
:100900005A70154B1B68002B20D01B79002B19D176
:1009100001204042002804D00F4B1B681B79002B9C
:1009200017D10D4B1B681E69587A01AC02232200B7
:100930001E21B0470122A2561202237813432B80B6
:1009400002B070BD0020054B9847E3E77F2040428E
:10095000F6E701204042F3E7840000204102000056
:1009600030B583B004000622002168461D4B98472D
:100970001D4B1B68002B2ED01B79002B27D101208B
:100980004042002804D0184B1B681B79002B25D14E
:10099000154B1B681D69587A06236A461A21A84719
:1009A0006B4601229A5612021B78134323806B4632
:1009B00003229A5612029B78134363806B460522EA
:1009C0009A5612021B791343A38003B030BD002056
:1009D000064B9847D5E77F204042F6E7012040428A
:1009E000F3E7C046295500008400002041020000C2
:1009F00070B582B0050001AB00221A705A70154B19
:100A00001B68002B20D01B79002B19D101204042FC
:100A1000002804D00F4B1B681B79002B17D10D4BFE
:100A20001B681E69587A01AC022322002021B047BE
:100A30000122A2561202237813432B8002B070BD0C
:100A40000020054B9847E3E77F204042F6E701206E
:100A50004042F3E7840000204102000070B582B0FC
:100A6000050001AB00221A705A70154B1B68002B51
:100A700020D01B79002B19D101204042002804D03E
:100A80000F4B1B681B79002B17D10D4B1B681E6980
:100A9000587A01AC022322002221B0470122A2563B
:100AA0001202237813432B8002B070BD0020054B47
:100AB0009847E3E77F204042F6E701204042F3E712
:100AC000840000204102000070B582B0050001AB37
:100AD00000221A705A70154B1B68002B20D01B790E
:100AE000002B19D101204042002804D00F4B1B6875
:100AF0001B79002B17D10D4B1B681E69587A01AC6E
:100B0000022322002421B0470122A2561202237898
:100B100013432B8002B070BD0020054B9847E3E7DC
:100B20007F204042F6E701204042F3E784000020A6
:100B30004102000070B582B0050001AB00221A70BE
:100B40005A70154B1B68002B20D01B79002B19D134
:100B500001204042002804D00F4B1B681B79002B5A
:100B600017D10D4B1B681E69587A01AC0223220075
:100B70002621B0470122A2561202237813432B806C
:100B800002B070BD0020054B9847E3E77F2040424C
:100B9000F6E701204042F3E7840000204102000014
:100BA00030B583B00400082200216846204B9847E6
:100BB000204B1B68002B35D01B79002B2ED1012038
:100BC0004042002804D01B4B1B681B79002B2CD102
:100BD000184B1B681D69587A08236A462021A847CC
:100BE0006B4601229A5612021B78134323806B46F0
:100BF00003229A5612029B78134363806B460522A8
:100C00009A5612021B791343A3806B4607229A5609
:100C100012029B791343E38003B030BD0020064BE2
:100C20009847CEE77F204042F6E701204042F3E7B5
:100C300029550000840000204102000070B582B0F8
:100C4000050001AB00221A705A70154B1B68002B6F
:100C500020D01B79002B19D101204042002804D05C
:100C60000F4B1B681B79002B17D10D4B1B681E699E
:100C7000587A01AC022322002821B0470122A25653
:100C80001202237813432B8002B070BD0020054B65
:100C90009847E3E77F204042F6E701204042F3E730
:100CA000840000204102000070B582B0050001AB55
:100CB00000221A705A70154B1B68002B20D01B792C
:100CC000002B19D101204042002804D00F4B1B6893
:100CD0001B79002B17D10D4B1B681E69587A01AC8C
:100CE000022322002A21B0470122A25612022378B1
:100CF00013432B8002B070BD0020054B9847E3E7FB
:100D00007F204042F6E701204042F3E784000020C4
:100D10004102000070B582B0050001AB00221A70DC
:100D20005A70154B1B68002B20D01B79002B19D152
:100D300001204042002804D00F4B1B681B79002B78
:100D400017D10D4B1B681E69587A01AC0223220093
:100D50002C21B0470122A2561202237813432B8084
:100D600002B070BD0020054B9847E3E77F2040426A
:100D7000F6E701204042F3E7840000204102000032
:100D800030B583B004000622002168461D4B984709
:100D90001D4B1B68002B2ED01B79002B27D1012067
:100DA0004042002804D0184B1B681B79002B25D12A
:100DB000154B1B681D69587A06236A462821A847E7
:100DC0006B4601229A5612021B78134323806B460E
:100DD00003229A5612029B78134363806B460522C6
:100DE0009A5612021B791343A38003B030BD002032
:100DF000064B9847D5E77F204042F6E70120404266
:100E0000F3E7C0462955000084000020410200009D
:100E100070B582B0050001AB00221A705A70154BF4
:100E20001B68002B20D01B79002B19D101204042D8
:100E3000002804D00F4B1B681B79002B17D10D4BDA
:100E40001B681E69587A01AC022322002E21B0478C
:100E50000122A2561202237813432B8002B070BDE8
:100E60000020054B9847E3E77F204042F6E701204A
:100E70004042F3E7840000204102000070B582B0D8
:100E8000050001AB00221A705A70154B1B68002B2D
:100E900020D01B79002B19D101204042002804D01A
:100EA0000F4B1B681B79002B17D10D4B1B681E695C
:100EB000587A01AC022322003021B0470122A25609
:100EC0001202237813432B8002B070BD0020054B23
:100ED0009847E3E77F204042F6E701204042F3E7EE
:100EE000840000204102000070B582B0050001AB13
:100EF00000221A705A70154B1B68002B20D01B79EA
:100F0000002B19D101204042002804D00F4B1B6850
:100F10001B79002B17D10D4B1B681E69587A01AC49
:100F2000022322003221B0470122A2561202237866
:100F300013432B8002B070BD0020054B9847E3E7B8
:100F40007F204042F6E701204042F3E78400002082
:100F50004102000030B583B004000622002168463B
:100F60001D4B98471D4B1B68002B2ED01B79002B67
:100F700027D101204042002804D0184B1B681B7960
:100F8000002B25D1154B1B681D69587A06236A462C
:100F90002E21A8476B4601229A5612021B78134352
:100FA00023806B4603229A5612029B781343638078
:100FB0006B4605229A5612021B791343A38003B095
:100FC00030BD0020064B9847D5E77F204042F6E72A
:100FD00001204042F3E7C04629550000840000206C
:100FE0004102000070B582B005006B46981D0023D9
:100FF00003800B4B9847041E0ED16B46063300202E
:10100000185E084B98470022074B084EB0472860EF
:101010006960200002B070BD01246442F9E7C04657
:1010200075040000215400000000B03F214F000073
:1010300070B582B005006B46981D002303800B4BF2
:101040009847041E0ED16B4606330020185E084BED
:1010500098470022074B084EB0472860696020007F
:1010600002B070BD01246442F9E7C046E10400000B
:10107000215400000000B03F214F000070B582B045
:1010800005006B46981D002303800B4B9847041EF8
:101090000ED16B4606330020185E084B984700229D
:1010A000074B084EB04728606960200002B070BD51
:1010B00001246442F9E7C0464D05000021540000B8
:1010C0000000B03F214F0000F0B583B005000023C1
:1010D0006A461380538093806846134B9847041EDA
:1010E0001FD16B460020185E104FB847104E0022EB
:1010F000104BB047286069606B460220185EB84705
:1011000000220C4BB047A860E9606B460420185ED3
:10111000B8470022074BB04728616961200003B03F
:10112000F0BD01246442F9E7B90500002154000034
:10113000214F00000000B03F70B582B005006B4643
:10114000981D002303800B4B9847041E0ED16B465D
:1011500006330020185E084B98470022074B084EC4
:10116000B04728606960200002B070BD012464426D
:10117000F9E7C0463D0C0000215400000000594032
:10118000B948000070B582B005006B46981D002379
:1011900003800B4B9847041E0ED16B46063300208C
:1011A000185E084B98470022074B084EB04728604E
:1011B0006960200002B070BD01246442F9E7C046B6
:1011C000A90C00002154000000005940B94800005B
:1011D00070B582B005006B46981D002303800B4B51
:1011E0009847041E0ED16B4606330020185E084B4C
:1011F00098470022074B084EB047286069602000DE
:1012000002B070BD01246442F9E7C046150D00002C
:101210002154000000005940B9480000F0B583B0E7
:10122000050000236A461380538093806846134B61
:101230009847041E1FD16B460020185E104FB84718
:10124000104E0022104BB047286069606B460220A8
:10125000185EB84700220C4BB047A860E9606B46A7
:101260000420185EB8470022074BB0472861696127
:10127000200003B0F0BD01246442F9E7810D0000B5
:1012800021540000B94800000000594070B582B0F8
:1012900005006B46981D002303800B4B9847041EE6
:1012A0000ED16B4606330020185E084B984700228B
:1012B000074B084EB04728606960200002B070BD3F
:1012C00001246442F9E7C046110E000021540000D9
:1012D00000005940B948000070B582B005006B4667
:1012E000981D002303800B4B9847041E04D001383F
:1012F00044B2200002B070BD6B4606330020185E79
:10130000054B98470022054B054EB04728606960A1
:10131000EFE7C0467D0E0000215400000000594058
:10132000B948000070B582B005006B46981D0023D7
:1013300003800B4B9847041E04D0013844B22000B0
:1013400002B070BD6B4606330020185E054B98470F
:101350000022054B054EB04728606960EFE7C046A4
:10136000E90E00002154000000005940B948000077
:10137000F0B583B0050000236A4613805380938044
:101380006846134B9847041E04D0013844B220002D
:1013900003B0F0BD6B460020185E0E4FB8470E4EEE
:1013A00000220E4BB047286069606B460220185E31
:1013B000B8470022094BB047A860E9606B4604209B
:1013C000185EB8470022054BB04728616961DEE727
:1013D000550F000021540000B9480000000059409A
:1013E00070B582B0050000226B46DA71144B1B68A1
:1013F000002B1FD01B79002B18D101204042002860
:1014000004D00F4B1B681B79002B16D10C4B1B68AB
:101410001E69587A6B46DC1D012322003B21B04730
:101420002278012313402B7002B070BD0020054BC1
:101430009847E4E77F204042F6E701204042F3E787
:10144000840000204102000070B582B00400002238
:101450006B46DA71154B1B68002B20D01B79002BD3
:1014600019D101204042002804D0104B1B681B7981
:10147000002B17D10D4B1B681E69587A6B46DD1D7A
:1014800001232A003B21B0472A7852100123134040
:10149000237002B070BD0020054B9847E3E77F2022
:1014A0004042F6E701204042F3E7C04684000020B6
:1014B0004102000070B582B0040000226B46DA7170
:1014C000154B1B68002B20D01B79002B19D1012054
:1014D0004042002804D0104B1B681B79002B17D109
:1014E0000D4B1B681E69587A6B46DD1D01232A00CF
:1014F0003B21B0472A78921001231340237002B099
:1015000070BD0020054B9847E3E77F204042F6E797
:1015100001204042F3E7C046840000204102000061
:1015200070B582B0050000226B46DA71144B1B685F
:10153000002B1FD01B79002B18D10120404200281E
:1015400004D00F4B1B681B79002B16D10C4B1B686A
:101550001E69587A6B46DC1D012322003D21B047ED
:1015600022780F2313402B7002B070BD0020054B72
:101570009847E4E77F204042F6E701204042F3E746
:10158000840000204102000070B582B005000023F5
:101590006A46D3716A4693710632424B1B68002B30
:1015A00000D178E01000404B9847002800D075E04B
:1015B0006B4606331B78002B27D13A4B1B681C69FE
:1015C000587A01236A4607323D21A0470600041ECF
:1015D00002D0200002B070BD6B46DA1D13780F21D7
:1015E0008B435BB20D401D4315702E4D2B68DC689C
:1015F000587A01232E31A047C4B2A41964B22B68D3
:101600005B69962080009847E3E7264B1B681C69BE
:10161000587A01236A4607323D21A0470600041E7E
:1016200026D0002DD5D01F4B1B681C69587A01238A
:101630006A4607323D21A0470600041EC9D16B4609
:10164000DA1D13780F218B435BB20D401D431570DB
:10165000144D2B68DC68587A01232E31A047C4B2A0
:10166000A41964B22B685B69962080009847B0E7A4
:101670006B46D91D0B780F2293430B700E3A3D2019
:101680000A4B9847C0B2801944B2064B1B685B698D
:1016900014209847C5E77F2464429AE701246442F6
:1016A00097E7C04684000020211500001D020000BD
:1016B00070B582B0060000236A46D3716A46937102
:1016C0000632254B1B68002B42D01000234B984755
:1016D000041E2ED16B469A79002A04D1002808D026
:1016E0000124644227E01E4B9847C0B2001940B263
:1016F000F4E7194B1B681C69587A01236A460732C4
:101700003B21A0470500041E15D16B46DA1D137856
:1017100001218B435BB20E401E4316700E4B1B68BB
:10172000DC68587A01233A31A047C0B2401944B26C
:1017300001E0012464426B469879002802D1200020
:1017400002B070BD064B9847C0B2041964B2F6E708
:101750007F246442F3E7C046840000202115000086
:1017600089150000F0B583B0050000226B46DA80D1
:101770006B465F1D00233B703800174B98470600EF
:1017800004003B78002B19D1002C1ED16B46981D0C
:10179000124B9847C0B2041964B2002C18D16B46A2
:1017A00006330020185E0E4B984700220D4B0E4E5C
:1017B000B04728606960200003B0F0BD00200B4BEB
:1017C0009847C0B2801944B2DEE701246442F2E7D0
:1017D00001246442EFE7C046E1130000A1020000CB
:1017E0002154000000005940B9480000B116000023
:1017F000F0B583B0050000226B46DA806B465F1DB2
:1018000000233B703800144B9847060004003B78D7
:10181000012B05D00120114B9847C0B2801944B26A
:10182000002C13D16B46981D0D4B9847C0B204197C
:1018300064B2002C0DD16B4606330020185E094BB4
:10184000984728606960200003B0F0BD012464421D
:10185000F9E701246442F6E7E1130000B116000045
:10186000A102000021540000F0B583B00500002261
:101870006B46DA806B465F1D00233B703800174BC8
:101880009847060004003B78002B19D1002C1ED18C
:101890006B46981D124B9847C0B2041964B2002CD5
:1018A00018D16B4606330020185E0E4B9847002275
:1018B0000D4B0E4EB04728606960200003B0F0BDAC
:1018C00000200B4B9847C0B2801944B2DEE70124D8
:1018D0006442F2E701246442EFE7C046E1130000EE
:1018E0000D0300002154000000005940B9480000D9
:1018F000B1160000F0B583B0050000226B46DA8017
:101900006B465F1D00233B703800144B9847060060
:1019100004003B78012B05D00120114B9847C0B241
:10192000801944B2002C13D16B46981D0D4B98477B
:10193000C0B2041964B2002C0DD16B4606330020EE
:10194000185E094B984728606960200003B0F0BD1D
:1019500001246442F9E701246442F6E7E113000040
:10196000B11600000D03000021540000F0B583B053
:10197000050000226B46DA806B465F1D00233B703A
:101980003800174B9847060004003B78002B19D10C
:10199000002C1ED16B46981D124B9847C0B20419FB
:1019A00064B2002C18D16B4606330020185E0E4B33
:1019B000984700220D4B0E4EB0472860696020000A
:1019C00003B0F0BD00200B4B9847C0B2801944B261
:1019D000DEE701246442F2E701246442EFE7C046F7
:1019E000E113000079030000215400000000594079
:1019F000B9480000B1160000F0B583B00500002220
:101A00006B46DA806B465F1D00233B703800144B39
:101A10009847060004003B78012B05D00120114BAC
:101A20009847C0B2801944B2002C13D16B46981D60
:101A30000D4B9847C0B2041964B2002C0DD16B460F
:101A400006330020185E094B984728606960200023
:101A500003B0F0BD01246442F9E701246442F6E7D3
:101A6000E1130000B11600007903000021540000CA
:101A7000F0B5C64600B584B0050002AB00221A805E
:101A80005A809A806B46DF1D00233B7038001F4B45
:101A90009847060004003B78002B2AD1002C2FD158
:101AA00002A81B4B9847C0B2041964B2002C2AD17B
:101AB00002AF0023F85E174B98469847164E002257
:101AC000164BB047286069600223F85EC0470022C9
:101AD000124BB047A860E9600423F85EC0470022BB
:101AE0000E4BB04728616961200004B004BC9046E9
:101AF000F0BD00200A4B9847C0B2801944B2CDE730
:101B000001246442F0E701246442EDE7E1130000A0
:101B1000E503000021540000B948000000005940CE
:101B2000B1160000F0B585B0060002AB00221A80A5
:101B30005A809A806B46DF1D00233B703800184B9B
:101B40009847040005003B78012B05D00120154B78
:101B50009847C0B2001945B2002D1BD102A8124B04
:101B60009847C4B2641964B2002C16D102AF0023A6
:101B7000F85E0E4DA847306071600223F85EA847FA
:101B8000B060F1600423F85EA84730617161200005
:101B900005B0F0BD01246442F9E701246442F6E790
:101BA000E1130000B1160000E5030000215400001D
:101BB00070B582B0060000236A46D3716A469371FD
:101BC0000632254B1B68002B43D01000234B98474F
:101BD000041E2FD16B469A79002A04D1002808D020
:101BE0000124644228E01E4B9847C0B2001940B25D
:101BF000F4E7194B1B681C69587A01236A460732BF
:101C00003B21A0470500041E16D16B46DA1D137850
:101C100002218B435BB276000E401E4316700E4BC2
:101C20001B68DC68587A01233931A047C0B24019DB
:101C300044B201E0012464426B469879002802D145
:101C4000200002B070BD064B9847C0B2041964B2C0
:101C5000F6E77F246442F3E78400002021150000AA
:101C600089150000F0B583B0050000226B46DA80CC
:101C70006B465F1D00233B703800174B98470600EA
:101C800004003B78002B19D1002C1ED16B46981D07
:101C9000124B9847C0B2041964B2002C18D16B469D
:101CA00006330020185E0E4B984700220D4B0E4E57
:101CB000B04728606960200003B0F0BD00200B4BE6
:101CC0009847C0B2801944B2DEE701246442F2E7CB
:101CD00001246442EFE7C0464914000049060000B1
:101CE000215400000000B03F214F0000B11B000054
:101CF000F0B583B0060000226B46DA806B465F1DAC
:101D000000233B703800164B9847040005003B78D1
:101D1000012B05D00120134B9847C0B2001945B2E2
:101D2000002D17D16B46981D0F4B9847C4B264190C
:101D300064B2002C11D16B4606330020185E0B4BA9
:101D4000984700220A4B0B4DA84730607160200075
:101D500003B0F0BD01246442F9E701246442F6E7D0
:101D600049140000B11B0000490600002154000086
:101D700000208C40B9480000F0B583B00500002277
:101D80006B46DA806B465F1D00233B703800174BB3
:101D90009847060004003B78002B19D1002C1ED177
:101DA0006B46981D124B9847C0B2041964B2002CC0
:101DB00018D16B4606330020185E0E4B9847002260
:101DC0000D4B0E4EB04728606960200003B0F0BD97
:101DD00000200B4B9847C0B2801944B2DEE70124C3
:101DE0006442F2E701246442EFE7C0464914000070
:101DF000B5060000215400000000B03F214F000054
:101E0000B11B0000F0B583B0060000226B46DA80FB
:101E10006B465F1D00233B703800164B984704004B
:101E200005003B78012B05D00120134B9847C0B229
:101E3000001945B2002D17D16B46981D0F4B9847DE
:101E4000C4B2641964B2002C11D16B460633002071
:101E5000185E0B4B984700220A4B0B4DA847306089
:101E60007160200003B0F0BD01246442F9E7012451
:101E70006442F6E749140000B11B0000B5060000FB
:101E80002154000000208C40B9480000F0B583B018
:101E9000050000226B46DA806B465F1D00233B7015
:101EA0003800174B9847060004003B78002B19D1E7
:101EB000002C1ED16B46981D124B9847C0B20419D6
:101EC00064B2002C18D16B4606330020185E0E4B0E
:101ED000984700220D4B0E4EB047286069602000E5
:101EE00003B0F0BD00200B4B9847C0B2801944B23C
:101EF000DEE701246442F2E701246442EFE7C046D2
:101F00004914000021070000215400000000B03FE8
:101F1000214F0000B11B0000F0B583B00600002285
:101F20006B46DA806B465F1D00233B703800164B12
:101F30009847040005003B78012B05D00120134B86
:101F40009847C0B2001945B2002D17D16B46981DB5
:101F50000F4B9847C4B2641964B2002C11D16B4680
:101F600006330020185E0B4B984700220A4B0B4D9E
:101F7000A84730607160200003B0F0BD01246442C6
:101F8000F9E701246442F6E749140000B11B0000A0
:101F9000210700002154000000208C40B9480000B7
:101FA000F0B5C64600B584B0050002AB00221A8029
:101FB0005A809A806B46DF1D00233B7038001F4B10
:101FC0009847060004003B78002B2AD1002C2FD123
:101FD00002A81B4B9847C0B2041964B2002C2AD146
:101FE00002AF0023F85E174B98469847164E002222
:101FF000164BB047286069600223F85EC047002294
:10200000124BB047A860E9600423F85EC047002285
:102010000E4BB04728616961200004B004BC9046B3
:10202000F0BD00200A4B9847C0B2801944B2CDE7FA
:1020300001246442F0E701246442EDE74914000002
:102040008D07000021540000214F00000000B03F28
:10205000B11B0000F0B5C64600B584B0060002AB67
:1020600000221A805A809A806B46DF1D00233B7045
:1020700038001F4B9847040005003B78012B05D022
:1020800001201C4B9847C0B2001945B2002D28D141
:1020900002A8194B9847C4B2641964B2002C23D12A
:1020A00002AF0023F85E154B98469847144D002266
:1020B000144BA847306071600223F85EC0470022CD
:1020C000104BA847B060F1600423F85EC0470022BF
:1020D0000C4BA84730617161200004B004BC9046ED
:1020E000F0BD01246442F7E701246442F4E7C046EE
:1020F00049140000B11B00008D07000021540000AE
:10210000B948000000208C4070B582B00600002362
:102110006A46D3716A4693710632254B1B68002BC1
:1021200043D01000234B9847041E2FD16B469A7959
:10213000002A04D1002808D00124644228E01E4B64
:102140009847C0B2001940B2F4E7194B1B681C69EC
:10215000587A01236A4607323B21A0470500041E36
:1021600016D16B46DA1D137804218B435BB2B6009F
:102170000E401E4316700E4B1B68DC68587A012314
:102180003731A047C0B2401944B201E00124644293
:102190006B469879002802D1200002B070BD064B32
:1021A0009847C0B2041964B2F6E77F246442F3E7AB
:1021B000840000202115000089150000F0B583B0CF
:1021C000050000226B46DA806B465F1D00233B70E2
:1021D0003800174B9847060004003B78002B19D1B4
:1021E000002C1ED16B46981D124B9847C0B20419A3
:1021F00064B2002C18D16B4606330020185E0E4BDB
:10220000984700220D4B0E4EB047286069602000B1
:1022100003B0F0BD00200B4B9847C0B2801944B208
:10222000DEE701246442F2E701246442EFE7C0469E
:10223000B51400001D080000215400000000B03F4C
:10224000214F000009210000F0B583B006000022F4
:102250006B46DA806B465F1D00233B703800164BDF
:102260009847040005003B78012B05D00120134B53
:102270009847C0B2001945B2002D17D16B46981D82
:102280000F4B9847C4B2641964B2002C11D16B464D
:1022900006330020185E0B4B984700220A4B0B4D6B
:1022A000A84730607160200003B0F0BD0124644293
:1022B000F9E701246442F6E7B514000009210000A3
:1022C0001D0800002154000000208C40B948000087
:1022D000F0B583B0050000226B46DA806B465F1DC7
:1022E00000233B703800174B9847060004003B78EA
:1022F000002B19D1002C1ED16B46981D124B98470C
:10230000C0B2041964B2002C18D16B460633002009
:10231000185E0E4B984700220D4B0E4EB0472860BA
:102320006960200003B0F0BD00200B4B9847C0B29D
:10233000801944B2DEE701246442F2E701246442DA
:10234000EFE7C046B51400008908000021540000E2
:102350000000B03F214F000009210000F0B583B01C
:10236000060000226B46DA806B465F1D00233B703F
:102370003800164B9847040005003B78012B05D028
:102380000120134B9847C0B2001945B2002D17D158
:102390006B46981D0F4B9847C4B2641964B2002C69
:1023A00011D16B4606330020185E0B4B9847002274
:1023B0000A4B0B4DA84730607160200003B0F0BDA0
:1023C00001246442F9E701246442F6E7B5140000F1
:1023D00009210000890800002154000000208C40E1
:1023E000B9480000F0B583B0050000226B46DA80E2
:1023F0006B465F1D00233B703800174B9847060063
:1024000004003B78002B19D1002C1ED16B46981D7F
:10241000124B9847C0B2041964B2002C18D16B4615
:1024200006330020185E0E4B984700220D4B0E4ECF
:10243000B04728606960200003B0F0BD00200B4B5E
:102440009847C0B2801944B2DEE701246442F2E743
:1024500001246442EFE7C046B5140000F50800000F
:10246000215400000000B03F214F0000092100006E
:10247000F0B583B0060000226B46DA806B465F1D24
:1024800000233B703800164B9847040005003B784A
:10249000012B05D00120134B9847C0B2001945B25B
:1024A000002D17D16B46981D0F4B9847C4B2641985
:1024B00064B2002C11D16B4606330020185E0B4B22
:1024C000984700220A4B0B4DA847306071602000EE
:1024D00003B0F0BD01246442F9E701246442F6E749
:1024E000B514000009210000F50800002154000087
:1024F00000208C40B9480000F0B5C64600B584B055
:10250000050002AB00221A805A809A806B46DF1DBC
:1025100000233B7038001F4B9847060004003B78AF
:10252000002B2AD1002C2FD102A81B4B9847C0B2F8
:10253000041964B2002C2AD102AF0023F85E174BB5
:1025400098469847164E0022164BB047286069609F
:102550000423F85EC0470022124BB047286169612E
:102560000223F85EC04700220E4BB047A860E96026
:10257000200004B004BC9046F0BD00200A4B9847F0
:10258000C0B2801944B2CDE701246442F0E70124CF
:102590006442EDE7B5140000610900002154000019
:1025A000214F00000000B03F09210000F0B587B0C6
:1025B000060004AB00221A805A809A8002ABDC1D10
:1025C0000023237020001B4B98472378012B02D057
:1025D0000120194B9847002823D104A8174B98478E
:1025E0000190002821D104AD0023E85E144CA047DF
:1025F000144F0022144BB847306071600423E85E2A
:10260000A0470022104BB847306171610223E85E99
:10261000A04700220C4BB847B060F160019807B0AA
:10262000F0BD01235B420193F8E701235B42019374
:10263000F4E7C046B514000009210000610900005C
:1026400021540000B948000000208C4070B582B0D1
:10265000060000236A46D3716A4693710632254B01
:102660001B68002B42D01000234B9847041E2ED12C
:102670006B469A79002A04D1002808D001246442CC
:1026800027E01E4B9847C0B2001940B2F4E7194B3F
:102690001B681C69587A01236A4607323E21A0470D
:1026A0000500041E15D16B46DA1D137803218B43F8
:1026B0005BB20E401E4316700E4B1B68DC68587AE6
:1026C00001233B31A047C0B2401944B201E00124CC
:1026D00064426B469879002802D1200002B070BD98
:1026E000064B9847C0B2041964B2F6E77F246442EF
:1026F000F3E7C04684000020211500008915000082
:1027000010B51100002001E00130C0B29842FBD3A7
:10271000034A10685A1C034B984740B210BDC0468C
:10272000E8010020C532000070B582B00E0015002F
:102730001C000822002168460A4B98476B461E7011
:10274000002304E06A46D15CE9540133DBB2A342C2
:10275000F8D3054B1868A2B22900044B984740B241
:1027600002B070BD29550000E8010020FD320000D4
:1027700010B580B2014B984710BDC046D53100005E
:10278000F8B5DE4657464E464546E0B5FD4C0123BA
:102790005B4223600023FC4A1370FC4A1380FC4A0E
:1027A0001380FC4A1380FC4A1380FC4A1380FC4AC5
:1027B0001380FC4A1380FC4A1380FC4A1380FC4AB5
:1027C0001380FC4A1380FC4A1380FC4A1380FC4AA5
:1027D0001380FC4A1380FC4A1380FC4A1380FC4A95
:1027E0001380FC4A1380FC4A1380FC4A1380FC4A85
:1027F000138000220023FB490A604B60FA490A60FB
:102800004B60FA4D2A606B60F9490A604B60F949E8
:102810000A604B60F8498B460A604B60F7490A60D2
:102820004B60F7490A604B60F6490A604B60F64F0F
:102830003A607B60F54E32607360F5490A604B6028
:10284000F4498A460A604B60F34989460A604B6046
:10285000F24988460A604B60F1490A604B60F149D1
:102860000A604B60F0490A604B600020EF4B9847CC
:1028700023689C46604420600720ED4B98472368FE
:102880009C4660442060C148EA4B984723689C46B8
:1028900060442060BE48E84B984723689C466044EB
:1028A0002060BC48E54B984723689C466044206004
:1028B000E348E44B984723689C4660442060B64850
:1028C000E14B984723689C4660442060B348DF4B47
:1028D000984723689C4660442060B148DC4B984789
:1028E00023689C4660442060DA48DB4B98472368A5
:1028F0009C4660442060AB48D84B984723689C4670
:1029000060442060A848D64B984723689C466044A2
:102910002060A648D34B984723689C4660442060BB
:10292000D148D24B984723689C46604420600C20D5
:10293000BF4B984723689C46604420609C48CC4B22
:10294000984723689C46604420609A48C94B984742
:1029500023689C46604420609748C74B984723688B
:102960009C4660442060C548C54B984723689C46F8
:10297000604420609148C34B984723689C4660445C
:1029800020608F48C04B984723689C466044206075
:102990008C48BE4B984723689C46604420608A4818
:1029A000BB4B984723689C4660442060B948BA4BAB
:1029B000984723689C46604420608448B74B9847FA
:1029C00023689C46604420608148B54B9847236843
:1029D0009C46604420607F48B24B984723689C46E1
:1029E00060442060B048B14B984723689C466044DF
:1029F00020607948AE4B984723689C46604420602D
:102A00007648AC4B984723689C46604420607448E5
:102A1000A94B984723689C4660442060A748A84B70
:102A2000984723689C46604420606E48A54B9847B1
:102A300023689C46604420606A48A34B98472368FB
:102A40009C46604420606848A04B984723689C4699
:102A50006044206064489E4B984723689C466044CD
:102A6000206028009B4B984723689C466044206068
:102A70002800994B984723689C4660442060974DF6
:102A80002800974B984723689C46604420602800A4
:102A9000944B984723689C46604420605448924B6E
:102AA000984723689C466044206052488F4B984763
:102AB00023689C466044206058468D4B98472368A5
:102AC0009C46604420608B488B4B984723689C460B
:102AD000604420604948894B984723689C4660447D
:102AE00020604748864B984723689C466044206096
:102AF0004448844B984723689C46604420603F4884
:102B0000814B984723689C46604420603C487F4B3B
:102B1000984723689C46604420603A487C4B98471D
:102B200023689C46604420607A4D28007A4B984781
:102B300023689C46604420602800784B98472368AF
:102B40009C46604420603800754B984723689C463B
:102B5000604420603000734B984723689C46604473
:102B600020602B48704B984723689C466044206047
:102B700038006E4B984723689C46604420603000C4
:102B8000D6E0C04634020020280100208001002049
:102B9000C00000207C020020D20000205201002052
:102BA0003A020020E800002054010020DA00002052
:102BB000E600002030020020A0000020DC00002001
:102BC00038020020B801002050010020DE00002063
:102BD000E601002082010020780200207A02002015
:102BE0004001002020020020B00100204802002007
:102BF0004801002018020020F0000020D801002029
:102C0000900100205002002088010020580100207F
:102C10004002002080020020F00100202802002055
:102C2000F801002038010020300100204D2600006E
:102C300089150000A10200000D03000079030000C7
:102C400060010020E503000075040000E1040000BD
:102C50004D050000CC000020B90500004906000029
:102C6000B506000021070000E00000208D070000ED
:102C70001D08000089080000F50800005802002027
:102C800061090000F10900005D0A0000C90A0000A6
:102C9000350B0000C4000020A10B00003D0C00001B
:102CA000A90C0000150D0000E0010020810D0000BE
:102CB000110E00007D0E0000E90E0000D40000207F
:102CC000550F000065170000F1170000691800009B
:102CD000F51800006D190000F9190000C00100206E
:102CE000711A0000251B0000E50F000031100000E4
:102CF0007D10000010010020C9100000651C0000BC
:102D0000791D00008D1E0000F11C0000051E000052
:102D1000191F0000A8000020A11F0000552000007E
:102D2000BD210000D1220000E5230000492200005F
:102D3000324B984723689C46604420603048314BB2
:102D4000984723689C46604420602F4D28002F4BF5
:102D5000984723689C466044206028002C4B984785
:102D600023689C466044206050462A4B984723685D
:102D70009C46604420604846274B984723689C4601
:102D8000604420604046254B984723689C46604439
:102D900020602348234B984723689C46604420606A
:102DA0002148224B984723689C4660442060204875
:102DB000204B984723689C46604420601E481F4B68
:102DC00098471F4C23689C46604420601D481E4B5A
:102DD000984723689C466044206002221B4B1A706F
:102DE00002201B4B984723689C46604420603CBCF3
:102DF00090469946A246AB46F8BDC0465D2300000A
:102E0000400200207124000060020020F92400002C
:102E1000AD2500003911000085110000D11100001E
:102E2000680100201D120000F80100208D12000032
:102E300038010020D91200003001002025130000C5
:102E4000340200200002002071130000280100203D
:102E50004D260000F0B5DE46474680B583B00190B0
:102E60000F009346274B9847009004000023984694
:102E700000E0B04643465E1CFD180A212000224BAC
:102E80009847303129700A212000204B9847041EB2
:102E9000EFDC002208E0B9180878B31A013BFB18F0
:102EA0001C780C7018700132F30F9B195B109A425A
:102EB000F1DB444602342E23BB550098144B98474F
:102EC000011C0198134B9847002611E01249134B3F
:102ED000984700900B4B9847651C030030333B55D7
:102EE0000B4B9847011C00980A4B984701362C0061
:102EF0005E45EBDB3C190022227003B00CBC90460F
:102F00009B46F0BDD94700005542000089400000B3
:102F100019480000A1440000000020416142000067
:102F200080221203C023DB055A61704780221203FE
:102F3000C023DB059A61704780225205C023DB0560
:102F40009A6170478022D202C023DB055A61704724
:102F50008022D202C023DB059A617047FEE70000A1
:102F6000F8B5234A234B9A4209D0224B204A03E06A
:102F700011681960043304321F498B42F8D31F4B88
:102F800002E000221A6004331D4A9342F9D31D4A1D
:102F9000FF211D4B8B439360FD3990235B001B4A3F
:102FA000D1501B4AD3780325AB4302242343D3706B
:102FB000D3780C27BB4308263343D370154B987B3B
:102FC00030229043202210439873997BB9433143B8
:102FD00099739A7BAA4322439A730F4A51688023BC
:102FE0000B4353600D4B98470D4B9847FEE7C04687
:102FF00068680000000000206400002068000020D5
:10300000B802002000ED00E0000000000070004168
:10301000005000410048004100400041E1540000E0
:10302000813D000030B50F4B4422995C0125A94336
:1030300001242143C9B299543220195C353A914395
:1030400003221143C9B2195445215A5CAA432243B1
:10305000D2B25A541A5C36390A4030210A43D2B2ED
:103060001A5430BD00440041044A136A04210B4342
:103070001362034A034B5A807047C0460004004065
:1030800014400000000C004010B5054B984700228A
:1030900004490548054B9847054B984710BDC04665
:1030A000693000000008004288020020153400004A
:1030B0002530000070B5134B5020195C0422914359
:1030C0001954195C0125A94301242143C9B219549B
:1030D0001838195C0F26B14302263143C9B219547E
:1030E00051215E5C96435E545A5CAA432243D2B29D
:1030F0005A541A5C42390A4020210A43D2B21A5467
:1031000070BDC04600440041054A136A08210B43C4
:103110001362044B044A5A80044A5A807047C046DE
:1031200000040040000C0040154000001343000064
:1031300010B5044B984704490448054B9847054B84
:10314000984710BD09310000000C00429402002095
:103150005D320000B530000070B5174B9847C022B3
:10316000D2058023DB0253619360144B8020C0059D
:1031700098621349996252255C5D01218C435C552C
:10318000802424035461946098620E4C9C62013543
:103190005C5D8C435C558024640554619460986246
:1031A000094A9A625C201A5C8A431A54074B984772
:1031B000074B984770BDC046F534000000440041FD
:1031C000040000C0080000C0001000C089300000EA
:1031D0003131000010B5044B1C68044B98470100C6
:1031E0002000034B984710BD88000020D134000018
:1031F000ED34000010B584B01438848B01AB1C8012
:1032000014000292064A5A8003911900054B984710
:10321000002802D1200004B010BD0400FAE7C04627
:103220000080FFFFC13A000010B584B01438848BD1
:1032300001AB1C8014000292064A5A8003911900C7
:10324000054B9847002802D1200004B010BD0400AF
:10325000FAE7C0460180FFFFC13A000070B50400E4
:103260000D00431E9841C0B25E220749074B9847A4
:1032700029002000064B9847002803D1054BA36185
:10328000054B636170BDC046F06500008D340000E1
:10329000113A000029320000F531000010B5014B51
:1032A000984710BD413A00008905890D8023DB0055
:1032B0001A400A43828310007047143008600020CF
:1032C0007047000070B504000D00160000280ED0F5
:1032D00000290AD0012034220649074B9847236869
:1032E000320029002000984770BD0020F3E700203D
:1032F000F1E7C0460C6600008D34000070B5040094
:103300000D00160000280ED000290AD001203D2211
:103310000649074B98476368320029002000984708
:1033200070BD0020F3E70020F1E7C0460C66000006
:103330008D340000F8B505000E001700002823D0DA
:10334000002923D0002A23D10020F1221149124B59
:1033500098472C0008342000104B98470028F8D0DC
:103360000025715D20000E4B984720000B4B9847BD
:103370000028FAD00135BD42F3D32000094B98470D
:103380000028FAD02800F8BD0020DEE70020DCE7A6
:103390000120DAE7206600008D340000EF390000DC
:1033A000DF390000F9390000F8B5CE46474680B550
:1033B000051E884691461FD000291FD0002A1FD124
:1033C0000020862252000F490F4B984700262C0000
:1033D000083420000D4B98470028F8D043469F1929
:1033E00020000B4B9847387001364E45EFD3300024
:1033F0000CBC90469946F8BD0020E2E70020E0E7CB
:103400000120DEE7206600008D340000053A000050
:10341000E739000070B504000D00002814D0002921
:1034200010D0012034220949094B98472000083068
:103430002900084B9847002803D1074B6360074BCE
:10344000236070BD0020EDE70020EBE72066000060
:103450008D340000A1390000A9330000353300008D
:1034600010B50400431E9841C0B253220449054BD5
:10347000984720000830044B9847002010BDC046F4
:10348000206600008D340000CD390000002800D1F6
:1034900000BE70470300064A1268002A04D0044A9E
:1034A0001068C318136070470249014A1160F6E7BB
:1034B0008C000020B8220020012040427047802369
:1034C0009B014B600020704701207047002070472F
:1034D00010B503006420584302300321024B984783
:1034E00083001B18580010BD753F00000139FDD83E
:1034F0007047000010B5074B5A685A60064B984752
:10350000064B98470820064CA047064B9847F720E3
:10351000A04710BD0040004141350000253D00009E
:1035200029350000713D0000C30706D5034B8022FA
:1035300052009A60832252025A607047000C004089
:10354000064B1A7AD2B21A725A7AD2B25A729A7A4E
:10355000D2B29A72DA7AD2B2DA72704700040040BC
:10356000024B9C466044800AC0B2704700F8FFBD21
:1035700010B50B4B984702000020002806D0094ADE
:1035800009490020094B9847002010BD83001B18F3
:103590009900074BCB5C9A42F7D00130C0B2ECE700
:1035A000613500003A0200008C6600008D34000096
:1035B0003C66000070B504002D4B9847E369DB07BB
:1035C00017D483001B189A002A4B9B185A681C2397
:1035D0001A4023689B0709D5E3699B07FCD1236840
:1035E00002218B432360E3699B07FCD4012313432F
:1035F0002360E369DB07FCD48200121891001D4BA5
:103600005B185A6822609B68636093040BD4C023E4
:10361000DB011A4207D183001B189A00154B9B1837
:103620009B89A38115E083001B189A001149891812
:103630008A89A389D204D20C5B0B5B031343A38159
:103640008B7B07221A40A3895203DB04DB0C134354
:10365000A381084A83001D18A9000D005118C97BD9
:10366000A1735219127C3023E254002070BDC04671
:10367000713500003C66000010B50D4B98470023E3
:10368000002B08D0E62292000A4900200A4B9847F6
:103690000120404210BD5A00D218D100074A5218EA
:1036A000127D904202D00133DBB2E9E758B2F1E774
:1036B000613500008C6600008D3400003C6600001F
:1036C00070B505000C000800224B9847C0B2E369B2
:1036D000DB0717D443001B18DA001F4B9B189A69AD
:1036E0001C231A4023689B0709D5E3699B07FCD17B
:1036F000236802218B432360E3699B07FCD40123E9
:1037000013432360E369DB07FCD443001B18DA0092
:10371000114989188A692260CB6963600B6AE3608A
:10372000130E03221A40AA8101239342924152426E
:10373000E3695B07FCD4636A0849194093030B43B0
:10374000636243001818C200034B9B18DB8CEB81AB
:10375000002070BD793600003C660000FFBFFFFF0F
:1037600070B5050004692368DB0E01261E40431E68
:103770009841C0B2824A8349834B98476B68012BBA
:1037800047D0E3695B07FCD46368804A13406360F9
:103790002B885A0548D56A88D20704D56A888021C3
:1037A000C9000A436A805B00626A8021C9010A403D
:1037B00077490B40134380221202134363622E6940
:1037C000744A337EDBB21800511E002A02D00A0070
:1037D0009B07F6D02368DB0E01221A40E3695B07E2
:1037E000FCD4638B9BB2C10700D480E09A0729D533
:1037F000012222766A88802149010A436A806A8808
:1038000065490A406A80DB0700D4B4E005204042E5
:1038100090E0002EB5D0E3695B07FCD4626880239A
:10382000DB0213436360B3E75B00FF2213406A8847
:1038300001210A401343626A8021C9010A401343EF
:103840006362BCE75B070ED46B885B0527D46868AE
:10385000002840D16B881BB2002B33DB6B884E4AAB
:1038600013406B8066E06B68002B04DD6B88802260
:10387000520113436B806B881BB2002B06DB6B88F5
:10388000454A13406B800220404253E0E3695B07E6
:10389000FCD46268C0239B0213436360EFE72B886C
:1038A0001B125A00636A8021C90119400623134084
:1038B0000B43F122134363626B88384A13406B80D9
:1038C000002037E0E3695B07FCD46268C0239B02F9
:1038D00013436360C2E7AB681A782823E254AB68ED
:1038E0000133AB606B68013B6B60002022E0810715
:1038F00044D56968002939D05B0737D4013969603C
:10390000002901D1002A18D0012914D06B68002B9E
:1039100007D16B881BB2002B18DB6B881E4A134043
:103920006B80AB685A1CAA602822A25C1A70022322
:103930002376002070BD002AE8D0E3695B07FCD441
:1039400062688023DB0213436360DFE7E3695B07A0
:10395000FCD46368104A13406360E3695B07FCD4DE
:103960006268C0239B0213436360D6E70223237679
:1039700002204042DEE704204042DBE70020D9E796
:10398000940500008C6600008D340000FFFFFBFFF3
:10399000FE070000FFFF0000FFFEFFFFFFFBFFFF31
:1039A00070B505000C00431E9841C0B2B422044912
:1039B000044B98472C602000034B984770BDC046CD
:1039C0008C6600008D340000B53500000268D369B4
:1039D0009B07FCD1136802210B43136070470368F7
:1039E00089B2198570470368188DC0B270470368A3
:1039F000187E01231840704703681B7E5B08012076
:103A00001840704703681B7E9B08012018407047D0
:103A100070B504000D00431E9841C0B2044A054928
:103A2000054B9847256129002000044B984770BD3D
:103A3000070500008C6600008D340000C1360000D0
:103A400070B50400194D431E9841C0B2184A2900B0
:103A5000184EB04724692000431E9841C0B2164A50
:103A60002900B047E3699B07FCD123680222134376
:103A7000236004201149E3695B07FCD4628B1209BF
:103A800003231340012B0BD001390029F3DC01384B
:103A9000002807D0E3695B07FCD410236383E9E7C0
:103AA000002070BD06204042FBE7C0468C66000047
:103AB000240500008D340000F4050000FFFF000025
:103AC000F8B505000E000469431E9841C0B28D4A46
:103AD0008D498E4FB8472869431E9841C0B2B8221D
:103AE000D2008949B8473000431E9841C0B2884A85
:103AF0008549B8476B88DB0500D5FFE073888022D5
:103B00005200134373802B00320083CA83C3E369DE
:103B10005B07FCD4626880235B001343636028006A
:103B20007C4B9847002800D191E06B887A4A13407B
:103B30006B80F8BD052040429AE073881BB2002BD1
:103B400004DB6B88744A13406B80F2E7E3695B0720
:103B5000FCD46268C0239B0213436360F1E7530700
:103B60000ED46B885B0527D46868002840D16B8829
:103B70001BB2002B33DB6B88674A13406B8066E017
:103B80006B68002B04DD6B888022520113436B802D
:103B90006B881BB2002B06DB6B885F4A13406B807F
:103BA0000220404253E0E3695B07FCD46268C02313
:103BB0009B0213436360EFE72B881B125A00636A72
:103BC0008021C9011940062313400B43F1221343FE
:103BD00063626B88514A13406B80002037E0E369D1
:103BE0005B07FCD46268C0239B0213436360C2E797
:103BF000AB681A782823E254AB680133AB606B687A
:103C0000013B6B60002022E0BB0775D56B68002B81
:103C10006AD0520768D4013B6B60002B01D10029A8
:103C200049D0012B45D06B68002B07D16B881BB2A4
:103C3000002B49DB6B88384A13406B80AB685A1CF9
:103C4000AA602822A25C1A700223237600206B88C7
:103C5000DB0500D46DE72869314A037EDBB21F0023
:103C6000511E002A00D165E70A009B07F5D000200D
:103C7000002800D061E72368DB0E01211940E369C9
:103C80005B07FCD4628B92B2FB07BDD5930700D4CF
:103C900065E7012323766B88802149010B436B8004
:103CA0006B881D490B406B80D30722D5052040420D
:103CB000CDE70029B7D0E3695B07FCD462688023B5
:103CC000DB0213436360AEE7E3695B07FCD4636820
:103CD000114A13406360E3695B07FCD46268C02348
:103CE0009B0213436360A5E7022323760220404230
:103CF000ADE704204042AAE70020A8E706204042A2
:103D000017E7C046BF0500008C6600008D34000038
:103D1000C105000061370000FFFEFFFFFFFBFFFF52
:103D2000FFFF00000F4B196A090C1A6A920F9207E5
:103D300009040D4801400A430C490A431A629A6972
:103D400002210A439A611A7F1D310A401A77054BF6
:103D5000DB681B07FBD5034A136A80210B43136200
:103D60007047C046000800400000FF0F020300003B
:103D7000024A936902218B43936170470008004017
:103D800030B587B0274B9847274C28492000284B4F
:103D900098472000274B98478022120128212000B5
:103DA000254B9847254C264BE360264B2361264B39
:103DB000636128236372254B9847254B9847254B11
:103DC00098472000244B9847002820D1234B984740
:103DD0000A20234CA0472348234B9847234B98475E
:103DE000042201A9224B984701A92248224B984757
:103DF000224B9847224B9847FA256D002800A04790
:103E0000124B9847134B98472800A047DEE71D4800
:103E10001D4B98470948104B984701001B48164B0B
:103E20009847D3E71501000094020020E801002024
:103E3000BB3200009D320000A9320000F8000020D3
:103E40000127000029270000712700002D2F000006
:103E5000392F0000512F00002901000081270000A8
:103E6000D5310000E6010020A90C0000194800002F
:103E7000552E0000E466000039550000212F000097
:103E8000452F0000A86600002D560000CC660000FB
:103E900010B50B00002809D111001800054B9847F8
:103EA000002800DB10BD01204042FBE7012040421A
:103EB000F8E7C0460D3F000010B50B00013802289E
:103EC00009D811001800054B9847002800DB10BDE9
:103ED00001204042FBE701204042F8E7313F00006B
:103EE00070B50600064D2B6898680021054CA04768
:103EF0002B6858680021A047034B1E6070BDC04668
:103F000000000020415600009000002010B5040081
:103F1000054B1868002804D08AB22100034B98474B
:103F200010BD0020FCE7C04690000020FD320000DC
:103F300010B50400054B1868002804D08AB221008F
:103F4000034B984710BD0020FCE7C04690000020BE
:103F5000C532000010B5044C2000044B98472000E7
:103F6000034B984710BDC046880200206134000012
:103F7000E13E0000002243088B4274D303098B42C8
:103F80005FD3030A8B4244D3030B8B4228D3030C29
:103F90008B420DD3FF22090212BA030C8B4202D3CB
:103FA0001212090265D0030B8B4219D300E0090AF3
:103FB000C30B8B4201D3CB03C01A5241830B8B42FC
:103FC00001D38B03C01A5241430B8B4201D34B03E5
:103FD000C01A5241030B8B4201D30B03C01A52414A
:103FE000C30A8B4201D3CB02C01A5241830A8B42CF
:103FF00001D38B02C01A5241430A8B4201D34B02B8
:10400000C01A5241030A8B4201D30B02C01A52411B
:10401000CDD2C3098B4201D3CB01C01A52418309CF
:104020008B4201D38B01C01A524143098B4201D309
:104030004B01C01A524103098B4201D30B01C01A34
:104040005241C3088B4201D3CB00C01A52418308AE
:104050008B4201D38B00C01A524143088B4201D3DB
:104060004B00C01A5241411A00D20146524110463B
:104070007047FFE701B5002000F0F0F802BDC04630
:104080000029F7D076E7704703460B437FD4002220
:1040900043088B4274D303098B425FD3030A8B42DC
:1040A00044D3030B8B4228D3030C8B420DD3FF2246
:1040B000090212BA030C8B4202D31212090265D014
:1040C000030B8B4219D300E0090AC30B8B4201D3C7
:1040D000CB03C01A5241830B8B4201D38B03C01A0E
:1040E0005241430B8B4201D34B03C01A5241030B85
:1040F0008B4201D30B03C01A5241C30A8B4201D336
:10410000CB02C01A5241830A8B4201D38B02C01AE0
:104110005241430A8B4201D34B02C01A5241030A57
:104120008B4201D30B02C01A5241CDD2C3098B423C
:1041300001D3CB01C01A524183098B4201D38B01B9
:10414000C01A524143098B4201D34B01C01A52415C
:1041500003098B4201D30B01C01A5241C3088B42A1
:1041600001D3CB00C01A524183088B4201D38B008C
:10417000C01A524143088B4201D34B00C01A52412E
:10418000411A00D201465241104670475DE0CA0F05
:1041900000D04942031000D34042534000229C46C5
:1041A00003098B422DD3030A8B4212D3FC228901CF
:1041B00012BA030A8B420CD3890192118B4208D3A5
:1041C000890192118B4204D389013AD0921100E007
:1041D0008909C3098B4201D3CB01C01A524183091B
:1041E0008B4201D38B01C01A524143098B4201D348
:1041F0004B01C01A524103098B4201D30B01C01A73
:104200005241C3088B4201D3CB00C01A52418308EC
:104210008B4201D38B00C01A5241D9D243088B4242
:1042200001D34B00C01A5241411A00D201466346E5
:1042300052415B10104601D34042002B00D5494249
:10424000704763465B1000D3404201B5002000F088
:1042500005F802BD0029F8D016E770477047C04640
:10426000F8B557464E464546DE46E0B5470246009D
:1042700088467F0A360EC40F002E47D0FF2E24D06A
:10428000FB008027FF041F43002399469A467F3E88
:1042900043465D025800DB0F6D0A000E984643D07E
:1042A000FF283BD0EB0080250022ED041D437F3822
:1042B0003618731C41469B464B46614013430F2BF7
:1042C00064D875489B00C3589F46002F42D10823ED
:1042D0009946063BFF269A46DAE74146022A28D04D
:1042E000032A00D1CEE0012A00D0ACE0114000202A
:1042F0000022CCB24002D205400AE407104320431A
:104300003CBC90469946A246AB46F8BD002F15D15D
:1043100004239946033B00269A46B9E7FF20022270
:10432000002DC5D00322C3E7002D19D100200122A2
:10433000BEE70124FF220C400020DBE7380001F03B
:10434000B1F87626431F9F4000237642361A9946DD
:104350009A469DE70C239946093BFF269A4697E724
:10436000280001F09FF8431F9D4076235B42181AF6
:1043700000229DE780200024C003FF22BAE73D0011
:104380005246ABE73D0021005246A7E73B0C9C4656
:104390002A04120C2B0C1400604665463F043F0CA7
:1043A0007C4342435D437B43270C9B18FF18BA4272
:1043B00003D980235B029C46654424043A04240C00
:1043C000121993015C1EA3413F0C920E7D191A43F2
:1043D000AD0115432B0104D501235E466A081D403B
:1043E000154332007F32002A25DD6B0704D00F23EE
:1043F0002B40042B00D004352B0103D53200274B72
:1044000080321D40FE2A94DC0124A801400AD2B269
:104410000C406FE78020C003074207D0054205D15A
:1044200028434002400A4446FF2263E738434002E3
:10443000400AFF225EE70124A31A1B2B05DD0C4076
:104440000022002056E75E46CBE72A002020DA4013
:10445000C31A9D402B005D1EAB4113435A0704D085
:104460000F221A40042A00D004335A0104D5012433
:1044700001220C4000203DE701249B01580A0C401A
:10448000002237E780200124C00328434002400A6D
:104490000C40FF222EE7C046F0660000FFFFFFF74A
:1044A000F0B54F46D64646464400C0B5C20F470257
:1044B0004802400A844666467B0A4800C90F9A466D
:1044C000240E1500DB00000E8946F600FF2800D1FF
:1044D0008FE001214F464F403900914266D0221AA9
:1044E000002A00DC9DE000283DD1002E00D18BE0A9
:1044F000511E002900D0B5E001249B1B5A0144D570
:104500009B019F09380000F0CDFF053887408442A9
:1045100000DD96E0041B3A0020200134E240041B39
:10452000A7403B005F1EBB41002413435A0704D041
:104530000F221A40042A00D004335A0127D501342F
:10454000FF2C00D179E001229B015B0AE4B22A40F2
:104550005B02E405580AD207204310431CBC904676
:104560009946A246F0BDFF2CE0D08021C9040E433D
:104570001B2A7BDC31002020D140821A9640721E1B
:1045800096410E439B1B5A01BAD45A07D0D101223F
:10459000DF082A40FF2C33D1002F00D1A8E0802370
:1045A000DB033B435B025B0AFF24D1E7211A0029AE
:1045B0004CDD00282AD0FF2CB8D08020C004064350
:1045C0001B2900DDAFE030002027C840791A8E405B
:1045D000711E8E4106439B195901D6D50134FF2C1B
:1045E00000D185E001227A491A405B080B40134351
:1045F0009CE7002E00D070E76BE73B1EC5D1002280
:104600007B025B0AE4B2A3E714008FE7002E4DD0D3
:10461000481E002857D19B1901245A01B5D5022400
:10462000E0E7002A25D1621CD2B2012A72DD9F1B6D
:104630007A0135D5F71A0D0064E7012200232A40DC
:1046400086E73B00634A241A13406FE700296CD1C8
:10465000611CC8B201284EDDFF2949D09B195B08B7
:104660000C0063E7FF2A41D00A0081E701269B1B6B
:1046700089E7002C1CD0FF2821D08024E40452427A
:1046800023431B2A00DD96E01C002025D440AA1AF3
:1046900093405A1E93412343F31A04000D002DE763
:1046A000002F00D02EE700220024A9E70C003DE7F0
:1046B000002B58D0D243002AEED0FF28E1D133009E
:1046C000FF240D0032E7FF2910D0010078E7002B0E
:1046D0006ED0FF24002E00D128E780225146D2035D
:1046E000114203D06146114200D13300FF241DE77F
:1046F000FF2400232CE7002CE9D1002B63D0002EEF
:1047000000D113E79B195A0100D43EE7314A0C004F
:1047100013400BE7002C1ED1002B2FD1002E4FD0C1
:1047200033000D0002E7012655E7002C1FD1002BB6
:1047300043D0C94300290BD0FF2839D01B2944DCC2
:104740001C002027CC40791A8B40591E8B412343F3
:104750009B19040040E7002B1AD1002E24D180279A
:104760000022FF031BE7330004000D00DEE6FF28F4
:104770001ED08024E40449422343DFE7002E00D109
:10478000D4E69F1B7A0100D437E7F31A0D00CDE67B
:10479000FF24002E00D1C9E680225046D2031042E9
:1047A000A4D060461042A1D133000D00FF24BDE625
:1047B0003300FF24BAE601236EE733000400B5E6B8
:1047C000002700221CE73300B0E60123C0E7C04603
:1047D000FFFFFF7DFFFFFFFB41024300C20F490ABD
:1047E0001B0E00207E2B0DDD9D2B0CDC8020000499
:1047F0000143952B0ADC9620C31AD9404842002A6F
:1048000000D108007047034BD018FBE7963B994056
:10481000F4E7C046FFFFFF7F70B5002830D0C31714
:10482000C4185C40C50F200000F03CFE9E231B1AFC
:10483000962B0DDC9622D21A94402A006402640A58
:10484000DBB26402DB05600AD2071843104370BD77
:10485000992B19DC9922D21A002A29DD94402200D2
:10486000144C1440510704D00F210A40042A00D0F0
:104870000434620113D4A401640ADBB22A00E0E725
:10488000002200230024DCE705222100121AD14077
:10489000B922D21A9440621E94410C43DAE7054BC8
:1048A0002A001C409F23A4011B1A640ADBB2C8E73C
:1048B0002200D5E7FFFFFFFBF0B557464546DE4631
:1048C0004E46E0B54C000E0387B0834692461D006D
:1048D0008046360B640DCF0F002C4FD06F4B9C429F
:1048E00035D08023420F1B04F6001343334399460F
:1048F000C30098466A4B00269C46002364440393F9
:104900002B031B0B9B466B00ED0F50465B0D019577
:104910005ED0624A934253D05A46D1008022400F63
:10492000120402430A4393465246D1005C4A94461D
:10493000002263443800684084460290E41A16431B
:104940000F2E00D9B4E0574BB6009B599F46030089
:10495000334399466CD100239846023308260393CB
:10496000CEE7CB464146039A0197022A65D1019BC7
:104970004A4C9C460023002298466BE003003343D8
:1049800099464ED0002E00D1BCE1300000F08AFDE7
:1049900003000B3B1C2B00DDACE11D22D31A5A4651
:1049A0000100DA4008398E401300334399465B46D4
:1049B0008B40984600233C4C0026241A03939FE723
:1049C00051465A46114329D1002293460232B1E79B
:1049D000594601431ED05B46002B00D19EE158464C
:1049E00000F060FD03000B3B1C2B00DD8FE102009B
:1049F0005946083A91408B461D21CB1A5146D94061
:104A00000B0059460B4351469B469140264B0022D2
:104A10001B1A8FE7002301229B468BE75146032296
:104A200088E700239846013304260024039367E7B0
:104A30000323B14603930C2662E7032A00D15CE20C
:104A4000019B012A00D0E4E113409C46002300248E
:104A50000022984600211203130B0A0D12051A4377
:104A60002305124C40462240134362465B00D207A6
:104A70005B081343190007B03CBC90469946A24618
:104A8000AB46F0BD002380229C4612039846034C9F
:104A9000E0E70023014C00229846DBE7FF07000017
:104AA00001FCFFFF306700000DFCFFFFFFFF0F80E0
:104AB000D94500D939E100D134E1002346464D46BD
:104AC0009A46013C5B460A0E1B021A430B02170C66
:104AD000039313041B0C3900280090460193FFF741
:104AE00049FA0200019B83465A4328003900914647
:104AF000FFF7C6FA350C09040D43A9450DD95B46ED
:104B00004544013BA84500D93AE1A94500D837E121
:104B100002235B429C464544E3444B46EB1A390072
:104B200018000493FFF726FA019B05004343390060
:104B300004989946FFF7A4FA330409041B0C0B43AD
:104B4000994509D943446A1E984500D91AE1994507
:104B500000D817E1023D43444A469B1A5A461204C4
:104B60002A4303999346100C0A0C914609045A46AD
:104B7000090C4E460D001204120C45430591514399
:104B80007243704352190E0CB218954203D9802516
:104B90006D02AC466044150C09041204090C281877
:104BA0005218834200D2CEE000D1C8E01D1A53460D
:104BB0009E1AB24592415242AB1A9A46984500D18C
:104BC00017E139001800FFF7D5F9019B05004343B1
:104BD000390050460493FFF753FA04980B04310C44
:104BE0001943884209D941446B1E884500D907E121
:104BF000884200D804E1023D4144049BCB1A1800CE
:104C000039000493FFF7B6F9019B8246434339000C
:104C100004980193FFF734FA01980B043104090C4E
:104C2000194388420DD953464144013B884500D978
:104C3000E8E0884200D8E5E002235B429C4641441C
:104C4000E244019B2D04CE1A51462943059D4F464F
:104C50002A000B04080C1B0C5A4345437B43784342
:104C60005B19170CFB189D4203D980256D02AC46D9
:104C700060441D0C12041B04120C28189B18864259
:104C800000D293E000D18EE001231943A04BE3183A
:104C9000002B00DC99E04A0700D09EE05A46D20182
:104CA00006D55A469B4B1A4080239346DB00E318F7
:104CB000994A934268DD0123029A984C1A400023D6
:104CC000944698460022C5E680224B4612031342C2
:104CD0000AD05B46134206D11A431203120BAC46AC
:104CE00088468E4CB6E64B461A431203120BBC465E
:104CF0008A4CAFE603005A46283B9A40002391466F
:104D0000984657E6584600F0CDFB203040E60300B9
:104D10005246283B9A400021934677E600F0C2FBBA
:104D200020305FE6884500D2C7E64B46DE075D08C7
:104D300043465B081E434346DB079A46C2E600250E
:104D4000924500D333E7039E5946B446E244B24548
:104D5000AD416D424544EB180139984507D2984260
:104D600000D97FE000D1BCE01D1A8B461FE79845B3
:104D7000FAD1039D5545F2D943468B461D1A16E7D5
:104D80009B46CAE61500E7E65A46C90852070A4399
:104D90005B0590465C0D5A46012302995202194068
:104DA000120B8C4656E6002B00D16FE746444A1E94
:104DB000B04529D91100864200D065E7039A934295
:104DC00000D061E762E7012149420120C21A382A76
:104DD00021DD029B03409C4638E60F220A40042A4C
:104DE00000D15BE70A00111D914292415242934467
:104DF00054E7474BE318002BE5DD01225242F2E76E
:104E00001D00FAE69A461CE7B04239D86ED0110070
:104E10003AE702933AE71F2A3CDC20239B1A0C0056
:104E20005846994098404B1E99415B46D440D34028
:104E3000204308431A00430709D00F230340042BE3
:104E400005D00100081D88429B415B42D218130225
:104E50003AD50123029A01241A4000239446984629
:104E60000022F7E5022149428C46039DE344AC460B
:104E7000E244AA45AD416D424544ED182D1A96E62F
:104E80008A1E03994D008D4289414942414476185A
:104E900003958FE71F204042C31A5846D8400300AD
:104EA000202A28D040205D46821A954029434A1E78
:104EB00091411943072300220B4009D00F23002200
:104EC0000B400800042BBDD1010053075202120B06
:104ED000C9081943012388460299002419408C46C9
:104EE000B8E55245BED88B46002560E6039D9D423D
:104EF000C6D3110062E70025D8E780225B46120383
:104F00001A43019B1203120B9C468846034CA1E5F1
:104F1000FF030000FFFFFFFEFE070000FF07000089
:104F2000F0B557464546DE464E46E0B50C0398467A
:104F30004E00230B87B0070092469B46760DCD0F9F
:104F4000002E6BD06D4B9E4235D080245B46420FC5
:104F50002404DB0014431C43C3009946684BA3465A
:104F60009C46002300276644029343461C035A00D4
:104F7000DB0F5046240B520D984600D176E05F4B74
:104F80009A426DD08023410F1B040B435C49E4001F
:104F90008C461C43C300002062444146B618694059
:104FA000721C0191944607430F2F00D9B0E0554A77
:104FB000BF00D25997465B460343994600D087E02D
:104FC00000239B46023308270293CEE74246019214
:104FD000022867D0032800D10EE2012800D062E148
:104FE000002300240022994601990140CDB20021FE
:104FF00012030B0D120B1B051343434A24051340E8
:105000001C436400ED0764082C434846210007B0A8
:105010003CBC90469946A246AB46F0BD0343994638
:105020004FD05B46002B00D189E1584600F03AFA98
:1050300003000B3B1C2B00DD7AE11D22D31A3A0042
:1050400001005C46DA4008398C4013008F4023434E
:105050009B46B94600232D4E0027361A029384E75B
:10506000534623432AD10024022096E75346234384
:1050700020D0002C00D157E1200000F013FA0300EB
:105080000B3B1C2B00DD49E11D21CB1A51460200D0
:10509000D9405346083A944093400C431B4A121A95
:1050A00000207AE70125019B144C1D4000230022BB
:1050B00099469CE70024002201206EE75346032016
:1050C0006BE700239B4601330427002602934CE73D
:1050D000032381460C27029347E780220023002503
:1050E00012039946054C82E75C464B4602986FE7EF
:1050F0005C464B46019502986AE7C046FF070000F0
:1051000001FCFFFF70670000FFFF0F800DFCFFFF39
:105110004A464946170C1A0C1B041B0C08041900BC
:10512000000C41431500884619007D4379430395DF
:1051300089462900150045434D44029545462D0CEE
:10514000AA46029D5544A94506D98A4680214902AE
:105150008946CA4451460391290C049141460904E9
:105160002D04090C88462900250C24044144240CF4
:105170000591210041438846210079438A466843CE
:10518000414650448146080C48446F43824503D948
:105190008021490289464F44010C8946390049441F
:1051A000029141460F0404993F0C88460004C0193F
:1051B00080444146049159460F0C0904090C884665
:1051C00059438A4639005143894641464A4351462C
:1051D000090C8B467B43D2185A44934203D980234F
:1051E0005B029B46D94451460904090C8A46414654
:1051F00061437C43130C12044B445244A1468A463B
:105200003C0041466C434D4351464D440F0C7D19C3
:10521000A94503D98021490288464444049F039943
:10522000B84641448B4683458041414288465146B9
:1052300008042F04000C3F1858460299101889469C
:10524000904292414F44BA46524299469346C244D4
:10525000D144CB448F42BF41C245894199459B41CE
:10526000934592417F4249422D0C52420F435B428B
:1052700013437F19FF185B463C19DB0D059A640246
:105280001C43430213435D1EAB415A46C00D03430A
:1052900052021343E20156D501205A08034013433A
:1052A000E207134364085A48604400284DDD5A075A
:1052B00009D00F221A40042A05D01A1D9A429B4198
:1052C0005B42E4181300E20104D58020514AC0007B
:1052D00014406044504A904200DDE3E60125DB08BB
:1052E00062071A436402019B9146220B4405640D38
:1052F0001D407CE6802259461203114208D0144218
:1053000006D122431203120B45469946434C6EE6E2
:105310005B461A431203120B404C68E603005446E6
:10532000283B9C400023B9E600F0BCF82030A6E6FC
:105330000300283B9F400023BB4699468AE600F0C5
:10534000B1F8203074E6B446ADE701252A1A382AB0
:1053500006DD019B00241D4000230022994646E6FD
:105360001F2A21DC20252000AD1A1E00AB40A840DA
:10537000D6405D1EAB4130431843D440430709D0AB
:105380000F230340042B05D00300181D98429B41B6
:105390005B42E418230221D50125019B01241D4015
:1053A00000230022994622E61F2521006D42281A7B
:1053B000C1400800202A1DD05F35AA1A944023431B
:1053C0005C1EA341072503431D400022002D09D088
:1053D0000F2200241A401800042AD6D103006507C2
:1053E0006402220BDB082B4301259946019B002414
:1053F0001D40FCE50024E2E7802201251203224340
:1054000001991203120B0D409946044CEFE5C0467A
:10541000FF030000FFFFFFFEFE070000FF07000084
:1054200070B5002830D0C317C4185C40C50F2000E9
:1054300000F038F8174B184A1B1AD21A1F2A18DD29
:10544000164AD21A9440002224035B05240B5B0DFC
:105450000021100024030A0D240B12052243104CD6
:105460001B05224013435B00ED075B082B4319002B
:1054700070BD210091400A000B21081AC4405B0551
:105480002403240B5B0DE3E7002500230024002206
:10549000DEE7C0461E0400003304000013040000D1
:1054A000FFFF0F801C2101231B04984201D3000C35
:1054B00010391B0A984201D3000A08391B09984287
:1054C00001D30009043902A2105C40187047C0469D
:1054D00004030202010101010000000000000000BD
:1054E00070B500260C4D0D4C641BA410A64209D1CA
:1054F000002601F0A9F90A4D0A4C641BA410A6422B
:1055000005D170BDB300EB5898470136EEE7B30004
:10551000EB5898470136F2E75468000054680000E1
:10552000546800005868000003008218934200D1BC
:10553000704719700133F9E70FB40B4B13B51C68B2
:10554000002C05D0A369002B02D1200000F0F2FA54
:1055500005AB049AA1682000019300F0C7FC16BCBB
:1055600008BC04B01847C0460000002070B5050014
:105570000E00002804D08369002B01D100F0DAFA74
:10558000AB69AC68002B02D1280000F0D3FA244BA1
:105590009C420FD16C68A3891B0702D52369002B9D
:1055A00020D12100280000F057F900281AD001204E
:1055B000404270BD1B4B9C4201D1AC68EBE71A4BDB
:1055C0009C42E8D1EC68E6E7013B0136A360002B82
:1055D00004DAA269934216DB0A2914D023685A1C04
:1055E000226019703178A3680029EDD1013BA360D6
:1055F000002B0FDA22000A31280000F0D7F8431CF4
:10560000D5D00A20D5E72200280000F0CFF8431CAF
:10561000E8D1CCE70A2023685A1C22601870C8E73A
:10562000D4670000F4670000B467000010B5034BB6
:1056300001001868FFF79AFF10BDC0460000002067
:105640004A424A41802310B55200DB0000F002F8C4
:1056500010BD0000F0B51D004F4B85B01E68040062
:105660000F000092002E05D0B369002B02D130004C
:1056700000F060FA494B9C4250D17468009B022BA9
:1056800005D0012B00D984E0002D00DA81E0210053
:10569000300000F0E1F9616B002908D023004433A9
:1056A000994202D0300000F051FB002363630023D5
:1056B000A3616360A3891B0603D52169300000F054
:1056C00045FBA389364A1340A381009B022B5AD085
:1056D00003AB02AA2100300000F0C2FAA3891843EC
:1056E000A081002D24D1029D280000F025FB01950A
:1056F000071E42D1029B0193AB4239D101204042A7
:105700000223A2891343A3810023A360230047330C
:10571000236023610123636105B0F0BD214B9C42EE
:1057200001D1B468AAE7204B9C42A7D1F468A5E751
:10573000002FD9D0B369002B02D1300000F0FAF964
:10574000009B012B03D1A389009A1A43A281082050
:10575000A389276027616561184018D0012018408F
:105760000023984211D06D42A360A5611800D3E7D1
:10577000019800F0E1FA071EC0D08023A289019DA4
:105780001343A381D6E70020BAE7A560C4E7A06071
:10579000C2E701204042BFE700000020D4670000BC
:1057A0005CF3FFFFF4670000B4670000F8B5050084
:1057B0000E001400002804D08369002B01D100F0F2
:1057C000B9F9224B9C422DD16C68A369A360A389CF
:1057D0001B0731D52369002B2ED023682269F7B22D
:1057E000981A6369F6B2984205DB2100280000F0A0
:1057F00033F9002826D1A3680130013BA360236858
:105800005A1C22601F706369984204D0A389DB0789
:105810001AD50A2E18D12100280000F01DF9002801
:1058200012D00FE00A4B9C4201D1AC68CDE7094B86
:105830009C42CAD1EC68C8E72100280000F00CF8AF
:105840000028CAD0012676423000F8BDD467000097
:10585000F4670000B4670000364B70B51D680600A1
:105860000C00002D05D0AB69002B02D1280000F000
:1058700061F9314B9C420FD16C680C23E25E93B20C
:1058800019072DD4D90611D40923012033603733E9
:105890001343A381404270BD284B9C4201D1AC68A8
:1058A000EBE7274B9C42E8D1EC68E6E75B0713D5B2
:1058B000616B002908D023004433994202D03000A4
:1058C00000F044FA002363632422A3899343A38155
:1058D00000236360236923600823A2891343A38103
:1058E0002369002B0BD1A0218022A389890092007B
:1058F0000B40934203D02100300000F0D9F901237E
:10590000A289134011D00023A36063695B42A361A5
:10591000002023698342BED10C23E25E1306BAD570
:1059200040231343A3810138B5E7920700D463698C
:10593000A360EDE700000020D4670000F4670000DA
:10594000B4670000F7B58A8905000C00130760D41E
:105950004B68002B04DC0B6C002B01DC0020FEBD2F
:10596000E76A002FFAD000232E682B6080235B01AA
:105970001A4034D0606DA3895B0706D56368C01AEE
:10598000636B002B01D0236CC01A0200216A002334
:105990002800E76AB847A189431C06D12B681D2B54
:1059A00031D82C4ADA40D3072DD500236360236910
:1059B0002360CB0405D5431C02D12B68002B00D1FA
:1059C0006065616B2E600029C8D023004433994282
:1059D00002D0280000F0BAF900206063BFE701237D
:1059E000216A2800B847431CC5D12B68002BC2D0C0
:1059F0001D2B01D0162B01D12E60AFE74023A289C9
:105A00001343A381ABE740230B430120A381404212
:105A1000A5E70F69002FA1D00B680F60DB1B019376
:105A20000023920700D14B69A360019B002B00DC8F
:105A300094E7019B3A00216A2800A66AB047002833
:105A400003DC4023A2891343DFE7019B3F181B1AA5
:105A50000193EAE7010040200B6970B505000C00D6
:105A6000002B01D1002070BD002804D08369002BD9
:105A700001D100F05FF80B4B9C4209D16C680C22FD
:105A8000A35E002BEED021002800FFF75BFFEAE7C2
:105A9000054B9C4201D1AC68F1E7044B9C42EED12E
:105AA000EC68ECE7D4670000F4670000B46700001E
:105AB00010B5024900F0B2F810BDC046595A0000B6
:105AC000002310B504000360436083608181436656
:105AD000C281036143618361190008225C30FFF7D2
