:10000000382100204D020000490200004902000092
:1000100000000000000000000000000000000000E0
:100020000000000000000000000000004902000085
:10003000000000000000000049020000490200002A
:100040004902000049020000490200004902000084
:100050004902000049020000490200004902000074
:100060004902000049020000490200004902000064
:100070004902000049020000490200004902000054
:100080004902000049020000490200004902000044
:100090004902000049020000490200001D0F000053
:1000A000490200004902000049020000000000006F
:1000B0000000000010B5064C2378002B07D1054B3B
:1000C000002B02D0044800E000BF0123237010BDC4
:1000D00064000020000000006C520000084B10B5C6
:1000E000002B03D00749084800E000BF0748036819
:1000F000002B00D110BD064B002BFBD09847F9E731
:1001000000000000680000206C5200006C520000EB
:100110000000000070B582B00500066801AC002345
:1001200023706370802212014F213000214B9847C9
:1001300014360122210030001F4B98470222210073
:1001400030001E4B984722781202637813431BB28B
:1001500098B2002B2BDB00230124E41A64B2400484
:10016000400C2E7A07239B1B184180B2144B9847F2
:10017000051C2000134B9847291C134B9847134B21
:10018000984704000D000120B040114B9847020031
:100190000B0000200F49104EB04702000B0020005A
:1001A00029000E4CA0470E4B984702B070BD0223A9
:1001B000D2E7C046F5090000090A0000410A000024
:1001C0005D250000BD240000051F0000013800006F
:1001D0007D3700000000E03FE9250000512C0000C1
:1001E000A5380000F0B583B0040017000D4A0E4B8F
:1001F00098472568277201AE012333707F0177701D
:100200000023B370802212014F212800074B98472A
:100210002800143003223100054B9847200003B01A
:10022000F0BDC046944F0000D91B0000F509000046
:10023000090A000010B5024B9847024B984710BDC1
:10024000F9040000B91B0000FEE70000F8B5234ADE
:10025000234B9A4209D0224B204A03E011681960CF
:10026000043304321F498B42F8D31F4B02E00022B3
:100270001A6004331D4A9342F9D31D4AFF211D4BD6
:100280008B439360FD3990235B001B4AD1501B4A7E
:10029000D3780325AB4302242343D370D3780C27B0
:1002A000BB4308263343D370154B987B30229043D1
:1002B000202210439873997BB943314399739A7BF9
:1002C000AA4322439A730F4A516880230B43536019
:1002D0000D4B98470D4B9847FEE7C0466C52000007
:1002E000000000206400002064000020380100208D
:1002F00000ED00E0000000000070004100500041EF
:100300000048004100400041B93B0000711A000064
:10031000F0B585B01B4A116A80235B020B43136260
:10032000194A1A4B5A801A4C1A4E002302931A4B40
:100330000193012500950023220018493000184F31
:10034000B847221D102300213000164CA047402240
:10035000C023DB055A601449144B8B62C0231B0673
:100360008B624623CA5CAA4301200243D2B2CA541C
:1003700033228B5C0F24A3430343DBB28B5405B0C1
:10038000F0BDC046000400401E400000000C0040CC
:1003900080000020D4000020BC000020004000426B
:1003A000C90500007D0600000044004140000040F7
:1003B00030B50F4B4422995C0125A9430124214308
:1003C000C9B299543220195C353A91430322114342
:1003D000C9B2195445215A5CAA432243D2B25A5495
:1003E0001A5C36390A4030210A43D2B21A5430BD61
:1003F00000440041044A136A04210B431362034A78
:10040000034B5A807047C04600040040144000006F
:10041000000C004010B5054B9847002204490548E0
:10042000054B9847054B984710BDC046F5030000A3
:100430000008004220010020590B0000B103000019
:1004400070B5134B5020195C042291431954195C68
:100450000125A94301242143C9B219541838195C54
:100460000F26B14302263143C9B2195451215E5CB3
:1004700096435E545A5CAA432243D2B25A541A5C41
:1004800042390A4020210A43D2B21A5470BDC046F4
:1004900000440041054A136A08210B431362044BD0
:1004A000044A5A80044A5A807047C04600040040FB
:1004B000000C0040154000001343000010B5044B31
:1004C000984704490448054B9847054B984710BD89
:1004D00095040000000C004200010020A909000062
:1004E0004104000010B50248024B984710BDC046B9
:1004F00010E000E00D09000010B50E4B9847C02336
:10050000DB058022D2025A619A600B4B8022D20511
:100510009A620A4A9A6252215A5C012082435A54D2
:10052000074B9847074B9847074B9847074B984707
:1005300010BDC046710F000000440041040000C01F
:100540001103000015040000BD040000E5040000D4
:1005500010B58369002B00D0984710BD10B5C36952
:10056000002B00D0984710BDF0B583B005000E00F9
:100570001100036A9A5D53009B18DC00836A9C4655
:100580006444271D01916B46197938000C4B98473C
:1005900028000C4B9847012807D9019B190A3800FD
:1005A000074B9847A38A0133A382A38A0133A3820E
:1005B0002368002B02D031002800984703B0F0BD1B
:1005C000A10C0000AF0E0000F0B5D64600B582B019
:1005D0000500019116001C0008AB1F7800280CD004
:1005E00000290CD0002A0CD0002F0CD0099B002B26
:1005F00001D0012008E0002006E0002004E00020F7
:1006000002E0002000E000203F221649164B9A46E7
:100610009847621CFB0FD017BA425841C0B2402223
:100620001049D047002303E0FF22F2540133DBB22C
:10063000A342F9D92E622423EC540133EF54099BD1
:10064000AB6201992800094B9847002805D1084B57
:10065000AB60084B2B60084B6B6002B004BC924649
:10066000F0BDC046984F0000010C0000410E000094
:1006700069050000510500005D050000F0B583B07C
:1006800007000C0000920193002819D0002A19D00D
:10069000002B19D10020244E66223100234DA8479B
:1006A0002423FB5C0020A3424041C0B267223100FA
:1006B000A847396A0B5DFF2B2CD10026002307E0E9
:1006C0000020E8E70020E6E70120E4E70133DBB2A1
:1006D0002422BA5C934205D8CA5CFF2AF6D00136C0
:1006E000F6B2F3E72523FB5C9E4216D873009B19F4
:1006F000DD00BB6A58190430019A00990C4B9847E9
:1007000000280DD13B6A1E55BB6A5B1900229A82F4
:1007100003B0F0BD0D204042FAE71C204042F7E74D
:100720000D204042F4E7C046984F0000010C000045
:10073000090C0000F8B506000C000B4D431E984153
:10074000C0B283222900094FB8472423F35C00205C
:10075000A3424041C0B284222900B84721003000A2
:10076000034B98470020F8BD984F0000010C000093
:10077000A10E0000F0B5CE4600B504000D00170034
:100780001E00431E9841C0B29C221649164B994642
:1007900098472423E35C0020AB424041C0B29D2235
:1007A0001049C847236A5B5D012F17D0002F04D082
:1007B000022F15D00D2040420DE05A00D318DA0068
:1007C000A36A9E50731E9E41F3B23A002900200096
:1007D000064CA047002004BC9146F0BDA661F1E79D
:1007E000E661EFE7984F0000010C0000DF0E00000B
:1007F000F0B5CE46474680B583B005000C00904664
:100800001E00002834D0002A34D0002E34D100201D
:10081000BC222549254FB8472423EB5C0020A34286
:100820004041C0B2BD222049B8472800204B98471C
:10083000010030001F4B984748424841C0B2BF22D8
:100840001949B8472B6A1A5DA96A53009B18DA0048
:100850008946914401A8184B98474B461D1D280016
:10086000164B9847070001A8154B984700240BE04A
:100870000020CDE70020CBE70120C9E70134A4B276
:10088000414428000F4B98472100A74201D9B442A8
:10089000F4D34B469B8A1B1B4A469382200003B02D
:1008A0000CBC90469946F0BD984F0000010C00002A
:1008B000AF0E0000C91E0000F1080000E10C0000AE
:1008C000FF080000550C000010B50400431E9841BD
:1008D000C0B2D6220349044B98472000034B9847E7
:1008E000002010BD984F0000010C0000CB0E00004E
:1008F000EFF31083036072B6BFF35F8F7047BFF3EF
:100900005F8F036883F310887047000010B5024BB7
:100910001860024B984710BD940000201118000089
:1009200010B5044B1C68044B984701002000034B92
:10093000984710BD94000020650F00001D180000AE
:1009400010B584B01438848B01AB1C801400029263
:10095000064A5A8003911900054B9847002802D196
:10096000200004B010BD0400FAE7C0460080FFFF7D
:100970003D15000010B584B01438848B01AB1C8089
:1009800014000292064A5A8003911900054B9847B9
:10099000002802D1200004B010BD0400FAE7C046D0
:1009A0000180FFFF3D15000070B504000D00431EDF
:1009B0009841C0B25E220749074B984729002000A2
:1009C000064B9847002803D1054BA361054B636193
:1009D00070BDC046B44F0000010C00008D14000033
:1009E000750900004109000010B5014B984710BD82
:1009F000BD1400008905890D8023DB001A400A43DD
:100A0000828310007047000070B504000D001600CE
:100A100000280ED000290AD0012034220649074BB5
:100A200098472368320029002000984770BD0020B5
:100A3000F3E70020F1E7C046D04F0000010C0000B2
:100A400070B504000D00160000280ED000290AD051
:100A500001203D220649074B984763683200290070
:100A60002000984770BD0020F3E70020F1E7C04662
:100A7000D04F0000010C0000F8B505000E00170073
:100A8000002823D0002923D0002A23D10020F122DE
:100A90001149124B98472C0008342000104B9847FE
:100AA0000028F8D00025715D20000E4B98472000EB
:100AB0000B4B98470028FAD00135BD42F3D32000F4
:100AC000094B98470028FAD02800F8BD0020DEE73F
:100AD0000020DCE70120DAE7E44F0000010C000011
:100AE0006B1400005B14000075140000F8B5CE46CE
:100AF000474680B5051E884691461FD000291FD065
:100B0000002A1FD10020862252000F490F4B984720
:100B100000262C00083420000D4B98470028F8D000
:100B200043469F1920000B4B9847387001364E45BD
:100B3000EFD330000CBC90469946F8BD0020E2E7A8
:100B40000020E0E70120DEE7E44F0000010C000098
:100B5000811400006314000070B504000D0000282B
:100B600014D0002910D0012034220949094B98479C
:100B7000200008302900084B9847002803D1074B74
:100B80006360074B236070BD0020EDE70020EBE7BA
:100B9000E44F0000010C00001D140000ED0A0000ED
:100BA000790A000010B50400431E9841C0B25322D8
:100BB0000449054B984720000830044B9847002013
:100BC00010BDC046E44F0000010C000049140000B5
:100BD00070B504000D0000280BD0002907D00120BB
:100BE00069220549054B98472C60002070BD002004
:100BF000F6E70020F4E7C046E44F0000010C0000D7
:100C0000002800D100BE704770B504000E0015002A
:100C1000002812D0002912D0002A12D10020282248
:100C20000A490B4B98476B1E2B420CD16360002383
:100C3000A360E3602660002070BD0020EFE7002085
:100C4000EDE70120EBE70D204042F5E70050000002
:100C5000010C000070B504000D00002816D000291A
:100C600012D0012040220C490C4B9847A368E2683F
:100C70009A420DD0626813402268D35C2B70A3683F
:100C80000133A360002070BD0020EBE70020E9E7FE
:100C90000A204042F7E7C04600500000010C000067
:100CA00070B504000D00431E9841C0B251220A499C
:100CB0000A4B98476368E26813402268D554E3689A
:100CC000A2689A1A61688A4201D9591AA16001334F
:100CD000E360002070BDC04600500000010C000021
:100CE00010B50400431E9841C0B267220349044B6B
:100CF0009847E068A368C01A10BDC04600500000C5
:100D0000010C00000300064A1268002A04D0044ABD
:100D10001068C318136070470249014A1160F6E772
:100D20009800002038210020012040427047802395
:100D30009B014B60002070470120704700207047E6
:100D40000020704710B50B4B984702000020002888
:100D500006D07F2208490020084B9847002010BD8C
:100D6000C3001B1A9900064BCB5C9A42F7D00130A6
:100D7000C0B2ECE7410D000040500000010C000043
:100D80002450000070B504000D00274BC0184242EB
:100D90004241D0B294222549254B9847254B1A68E9
:100DA000D2081202E023DB001A4023490B6849688D
:100DB0004901DB0E0B43FF210B401A43637EDB0925
:100DC000FCD123789B0704D500232370637EDB09C5
:100DD000FCD101232370637EDB09FCD122851749F6
:100DE000EA00501B8300CB1898786070D878A07008
:100DF0001879E070187C2075D88AA084188BE0845C
:100E00009E7E2A202654D888A080D8682061187A2F
:100E10002072588AA0839B8A2384551BAB00CB1871
:100E20005B782370002070BD00C0FFBD4050000003
:100E3000010C00002460800020608000245000002D
:100E400070B505000C00431E9841C0B2D3220E4974
:100E50000E4B984720000E4B9847010020000D4B89
:100E6000984700280FD16C610B4B1D600B4B802203
:100E7000120480215A50BFF34F8FBFF36F8F01319F
:100E8000FF315A501A6070BD40500000010C000044
:100E9000450D0000850D00009C00002000E100E0F1
:100EA0004269137802210B43DBB213707047426929
:100EB000537EDB09FCD19288120903331340032BC4
:100EC00001D0022070470120FCE74269537EDB0914
:100ED000FCD1137B02210B43DBB2137370474169D2
:100EE000012A08D0022A0ED0002A03D1002B12D0EA
:100EF0000123CB757047002B02D104338B75F9E7C2
:100F00000423CB75F6E7002B02D102338B75F1E792
:100F10000223CB75EEE701338B75EBE710B5104B71
:100F200018684269117ED37D0B40D90704D4990714
:100F30000AD45B070ED410BD012313768368528B4D
:100F400092B200219847F6E7022313764368002106
:100F50009847F0E704231376036800219847EAE7EF
:100F60009C0000206423584383001B1858007047DE
:100F700010B5074B5A685A60064B9847064B98477E
:100F80000820064CA047064B9847F720A04710BD05
:100F900000400041BD0F0000A1170000A50F000098
:100FA000ED170000C30706D5034B802252009A605C
:100FB000832252025A607047000C0040064B1A7A96
:100FC000D2B21A725A7AD2B25A729A7AD2B29A7249
:100FD000DA7AD2B2DA72704700040040024B9C46C3
:100FE0006044800AC0B2704700F8FFBD10B50B4BDB
:100FF000984702000020002806D0094A094900202D
:10100000094B9847002010BD83001B189900074B1F
:10101000CB5C9A42F7D00130C0B2ECE7DD0F0000A4
:101020003A020000A8500000010C000058500000D7
:1010300070B504002D4B9847E369DB0717D4830094
:101040001B189A002A4B9B185A681C231A402368C5
:101050009B0709D5E3699B07FCD1236802218B43D9
:101060002360E3699B07FCD4012313432360E369F6
:10107000DB07FCD48200121891001D4B5B185A68E4
:1010800022609B68636093040BD4C023DB011A4287
:1010900007D183001B189A00154B9B189B89A381CD
:1010A00015E083001B189A00114989188A89A389C1
:1010B000D204D20C5B0B5B031343A3818B7B07220F
:1010C0001A40A3895203DB04DB0C1343A381084AB3
:1010D00083001D18A9000D005118C97BA173521976
:1010E000127C3023E254002070BDC046ED0F00009A
:1010F0005850000010B50D4B98470023002B08D026
:10110000E62292000A4900200A4B984701204042FB
:1011100010BD5A00D218D100074A5218127D9042D1
:1011200002D00133DBB2E9E758B2F1E7DD0F00008E
:10113000A8500000010C00005850000070B50500D8
:101140000C000800224B9847C0B2E369DB0717D4B4
:1011500043001B18DA001F4B9B189A691C231A4086
:1011600023689B0709D5E3699B07FCD1236802210B
:101170008B432360E3699B07FCD401231343236063
:10118000E369DB07FCD443001B18DA001149891816
:101190008A692260CB6963600B6AE360130E0322E5
:1011A0001A40AA810123934292415242E3695B07AC
:1011B000FCD4636A0849194093030B4363624300FC
:1011C0001818C200034B9B18DB8CEB81002070BD0C
:1011D000F510000058500000FFBFFFFF70B505007C
:1011E00004692368DB0E01261E40431E9841C0B2ED
:1011F000824A8349834B98476B68012B47D0E36948
:101200005B07FCD46368804A134063602B885A05EF
:1012100048D56A88D20704D56A888021C9000A4364
:101220006A805B00626A8021C9010A4077490B40ED
:10123000134380221202134363622E69744A337E81
:10124000DBB21800511E002A02D00A009B07F6D01C
:101250002368DB0E01221A40E3695B07FCD4638B31
:101260009BB2C10700D480E09A0729D501222276DB
:101270006A88802149010A436A806A8865490A4070
:101280006A80DB0700D4B4E00520404290E0002EE5
:10129000B5D0E3695B07FCD462688023DB021343AB
:1012A0006360B3E75B00FF2213406A8801210A40B4
:1012B0001343626A8021C9010A4013436362BCE799
:1012C0005B070ED46B885B0527D46868002840D183
:1012D0006B881BB2002B33DB6B884E4A13406B804C
:1012E00066E06B68002B04DD6B888022520113439B
:1012F0006B806B881BB2002B06DB6B88454A134062
:101300006B800220404253E0E3695B07FCD46268D3
:10131000C0239B0213436360EFE72B881B125A0024
:10132000636A8021C9011940062313400B43F1224F
:10133000134363626B88384A13406B80002037E0A8
:10134000E3695B07FCD46268C0239B0213436360BC
:10135000C2E7AB681A782823E254AB680133AB606C
:101360006B68013B6B60002022E0810744D569680F
:10137000002939D05B0737D401396960002901D1D0
:10138000002A18D0012914D06B68002B07D16B8874
:101390001BB2002B18DB6B881E4A13406B80AB68B6
:1013A0005A1CAA602822A25C1A700223237600200D
:1013B00070BD002AE8D0E3695B07FCD46268802333
:1013C000DB0213436360DFE7E3695B07FCD4636818
:1013D000104A13406360E3695B07FCD46268C02372
:1013E0009B0213436360D6E7022323760220404228
:1013F000DEE704204042DBE70020D9E79405000047
:10140000A8500000010C0000FFFFFBFFFE070000DA
:10141000FFFF0000FFFEFFFFFFFBFFFF70B50500B1
:101420000C00431E9841C0B2B4220449044B9847B3
:101430002C602000034B984770BDC046A8500000A8
:10144000010C0000311000000268D3699B07FCD139
:10145000136802210B4313607047036889B2198532
:1014600070470368188DC0B270470368187E012367
:101470001840704703681B7E5B08012018407047C6
:1014800003681B7E9B0801201840704770B504005C
:101490000D00431E9841C0B2044A0549054B9847C8
:1014A000256129002000044B984770BD0705000006
:1014B000A8500000010C00003D11000070B50400B0
:1014C000194D431E9841C0B2184A2900184EB04722
:1014D00024692000431E9841C0B2164A2900B04733
:1014E000E3699B07FCD12368022213432360042095
:1014F0001149E3695B07FCD4628B12090323134093
:10150000012B0BD001390029F3DC0138002807D06A
:10151000E3695B07FCD410236383E9E7002070BD17
:1015200006204042FBE7C046A8500000240500000A
:10153000010C0000F4050000FFFF0000F8B50500F5
:101540000E000469431E9841C0B28D4A8D498E4FEA
:10155000B8472869431E9841C0B2B822D2008949D1
:10156000B8473000431E9841C0B2884A8549B84701
:101570006B88DB0500D5FFE073888022520013439F
:1015800073802B00320083CA83C3E3695B07FCD4FA
:10159000626880235B001343636028007C4B98479C
:1015A000002800D191E06B887A4A13406B80F8BD27
:1015B000052040429AE073881BB2002B04DB6B8845
:1015C000744A13406B80F2E7E3695B07FCD46268FE
:1015D000C0239B0213436360F1E753070ED46B886B
:1015E0005B0527D46868002840D16B881BB2002BAC
:1015F00033DB6B88674A13406B8066E06B68002BB7
:1016000004DD6B888022520113436B806B881BB210
:10161000002B06DB6B885F4A13406B800220404240
:1016200053E0E3695B07FCD46268C0239B02134369
:101630006360EFE72B881B125A00636A8021C9019F
:101640001940062313400B43F122134363626B8856
:10165000514A13406B80002037E0E3695B07FCD4FC
:101660006268C0239B0213436360C2E7AB681A78C9
:101670002823E254AB680133AB606B68013B6B60BD
:10168000002022E0BB0775D56B68002B6AD052079B
:1016900068D4013B6B60002B01D1002949D0012B9C
:1016A00045D06B68002B07D16B881BB2002B49DB40
:1016B0006B88384A13406B80AB685A1CAA6028229A
:1016C000A25C1A700223237600206B88DB0500D40D
:1016D0006DE72869314A037EDBB21F00511E002AE4
:1016E00000D165E70A009B07F5D00020002800D054
:1016F00061E72368DB0E01211940E3695B07FCD435
:10170000628B92B2FB07BDD5930700D465E7012336
:1017100023766B88802149010B436B806B881D49C0
:101720000B406B80D30722D505204042CDE700292E
:10173000B7D0E3695B07FCD462688023DB02134304
:101740006360AEE7E3695B07FCD46368114A13404A
:101750006360E3695B07FCD46268C0239B021343A8
:101760006360A5E70223237602204042ADE7042010
:101770004042AAE70020A8E70620404217E7C046FB
:10178000BF050000A8500000010C0000C1050000CA
:10179000DD110000FFFEFFFFFFFBFFFFFFFF00006A
:1017A0000F4B196A090C1A6A920F920709040D4827
:1017B00001400A430C490A431A629A6902210A430A
:1017C0009A611A7F1D310A401A77054BDB681B07A7
:1017D000FBD5034A136A80210B4313627047C0464E
:1017E000000800400000FF0F02030000024A936956
:1017F00002218B439361704700080040024B034A6B
:101800005A6005221A60704710E000E0FFFFFF00F9
:1018100010B5014B984710BDFD170000080E0BE0F6
:101820000B4B0C4858609860094B1B68DB03FBD5D9
:10183000094B9C4661441000421ED2B20028EFD1F1
:10184000034B59609960024B1B68DB03FBD5704763
:1018500010E000E0FFFFFF00010000FF0122014B4C
:101860001A707047A000002070B50F4C0F4B00227B
:10187000002120000E4DA847002120000D4B984765
:1018800020000D4B98470D490D480E4B98470E4CC4
:1018900020000E4B9847022221000D4804300D4BCA
:1018A00098470D4B186070BDD40000205D180000F3
:1018B0007507000035070000C90800002C01002052
:1018C00020010020D10B000000010020E9090000E8
:1018D000A0000020E50100003001002070B582B0BA
:1018E0001448154B9847154B1B78002BFBD06B46C3
:1018F000DC1D0123220000210E48114DA84720784D
:10190000104B9847104D114A114BA8470022114B1C
:10191000114CA047114CA047114B984702000B00F7
:101920000A480B490F4EB04700220F4BA847A0476B
:1019300002B070BDD4000020C9080000A000002043
:10194000F10700007D370000512C000066666666D6
:1019500066660A4000E06F40E9250000A5380000F7
:1019600001380000513100000000694010B5044BFF
:101970001868044B9847044B984780B210BDC04686
:1019800030010020DF1B0000D51E00008022D202A3
:10199000C023DB055A6170478022D202C023DB05D9
:1019A0009A617047F0B5DE46474680B583B0019036
:1019B0000F009346274B9847009004000023984659
:1019C00000E0B04643465E1CFD180A212000224B71
:1019D0009847303129700A212000204B9847041E77
:1019E000EFDC002208E0B9180878B31A013BFB18B5
:1019F0001C780C7018700132F30F9B195B109A421F
:101A0000F1DB444602342E23BB550098144B984713
:101A1000011C0198134B9847002611E01249134B03
:101A2000984700900B4B9847651C030030333B559B
:101A30000B4B9847011C00980A4B984701362C0025
:101A40005E45EBDB3C190022227003B00CBC9046D3
:101A50009B46F0BD7D240000C91E0000FD1C000057
:101A6000BD2400004521000000002041051F0000AA
:101A700070B588B0134B9847134B9847042201A9BF
:101A8000201C124B9847124B9847041C01AA11497D
:101A900004A8114EB04704A8104DA847104B984712
:101AA0000204120C0F4904A8B04704A8A8470E4B23
:101AB000984764200D4DA8470D4B98476420A847D0
:101AC000DCE7C0463502000069180000A5190000D7
:101AD000DD180000C4500000B13D0000113C0000C2
:101AE0006D190000D85000008D1900002109000078
:101AF0009919000010B50B00002809D11100180039
:101B0000054B9847002800DB10BD01204042FBE751
:101B100001204042F8E7C046711B000010B50B00E1
:101B20000138022809D811001800054B98470028F1
:101B300000DB10BD01204042FBE701204042F8E7F6
:101B4000951B000070B50600064D2B6898680021B3
:101B5000054CA0472B6858680021A047034B1E6026
:101B600070BDC04600000020453C0000B0000020D1
:101B700010B50400054B1868002804D08AB2210073
:101B8000034B984710BD0020FCE7C046B000002082
:101B9000410A000010B50400054B1868002804D065
:101BA0008AB22100034B984710BD0020FCE7C046D5
:101BB000B0000020090A000010B5044C2000044BBE
:101BC00098472000034B984710BDC04620010020D5
:101BD000A50B0000451B000001604260704710B576
:101BE00043681B68984710BD002243088B4274D39A
:101BF00003098B425FD3030A8B4244D3030B8B420E
:101C000028D3030C8B420DD3FF22090212BA030C16
:101C10008B4202D31212090265D0030B8B4219D3F7
:101C200000E0090AC30B8B4201D3CB03C01A524117
:101C3000830B8B4201D38B03C01A5241430B8B425F
:101C400001D34B03C01A5241030B8B4201D30B0348
:101C5000C01A5241C30A8B4201D3CB02C01A52416F
:101C6000830A8B4201D38B02C01A5241430A8B4232
:101C700001D34B02C01A5241030A8B4201D30B021B
:101C8000C01A5241CDD2C3098B4201D3CB01C01A35
:101C9000524183098B4201D38B01C01A524143093F
:101CA0008B4201D34B01C01A524103098B4201D32D
:101CB0000B01C01A5241C3088B4201D3CB00C01A9A
:101CC000524183088B4201D38B00C01A5241430812
:101CD0008B4201D34B00C01A5241411A00D2014637
:101CE000524110467047FFE701B5002000F0F0F8C0
:101CF00002BDC0460029F7D076E7704703460B4384
:101D00007FD4002243088B4274D303098B425FD3F4
:101D1000030A8B4244D3030B8B4228D3030C8B4220
:101D20000DD3FF22090212BA030C8B4202D3121206
:101D3000090265D0030B8B4219D300E0090AC30BDB
:101D40008B4201D3CB03C01A5241830B8B4201D388
:101D50008B03C01A5241430B8B4201D34B03C01A71
:101D60005241030B8B4201D30B03C01A5241C30AE9
:101D70008B4201D3CB02C01A5241830A8B4201D35A
:101D80008B02C01A5241430A8B4201D34B02C01A44
:101D90005241030A8B4201D30B02C01A5241CDD2E9
:101DA000C3098B4201D3CB01C01A524183098B4234
:101DB00001D38B01C01A524143098B4201D34B011D
:101DC000C01A524103098B4201D30B01C01A524180
:101DD000C3088B4201D3CB00C01A524183088B4207
:101DE00001D38B00C01A524143088B4201D34B00F0
:101DF000C01A5241411A00D2014652411046704762
:101E00005DE0CA0F00D04942031000D34042534066
:101E100000229C4603098B422DD3030A8B4212D326
:101E2000FC22890112BA030A8B420CD38901921158
:101E30008B4208D3890192118B4204D389013AD095
:101E4000921100E08909C3098B4201D3CB01C01A6A
:101E5000524183098B4201D38B01C01A524143097D
:101E60008B4201D34B01C01A524103098B4201D36B
:101E70000B01C01A5241C3088B4201D3CB00C01AD8
:101E8000524183088B4201D38B00C01A5241D9D2F0
:101E900043088B4201D34B00C01A5241411A00D271
:101EA0000146634652415B10104601D34042002B6D
:101EB00000D54942704763465B1000D3404201B5EC
:101EC000002000F005F802BD0029F8D016E77047A1
:101ED0007047C0469E2110B5C905041C01F09CFD49
:101EE000002803D1201C00F0C9FA10BD9E21201C3F
:101EF000C90500F027F900F0C1FA80231B069C46B3
:101F00006044F2E7F8B557464E464546DE46E0B532
:101F10004702460088467F0A360EC40F002E47D07F
:101F2000FF2E24D0FB008027FF041F430023994687
:101F30009A467F3E43465D025800DB0F6D0A000E55
:101F4000984643D0FF283BD0EB0080250022ED04CB
:101F50001D437F383618731C41469B464B466140F3
:101F600013430F2B64D875489B00C3589F46002F1E
:101F700042D108239946063BFF269A46DAE74146B6
:101F8000022A28D0032A00D1CEE0012A00D0ACE0FA
:101F9000114000200022CCB24002D205400AE407E2
:101FA000104320433CBC90469946A246AB46F8BD40
:101FB000002F15D104239946033B00269A46B9E722
:101FC000FF200222002DC5D00322C3E7002D19D126
:101FD00000200122BEE70124FF220C400020DBE7A5
:101FE000380001F023FD7626431F9F4000237642F0
:101FF000361A99469A469DE70C239946093BFF26D7
:102000009A4697E7280001F011FD431F9D40762373
:102010005B42181A00229DE780200024C003FF22A3
:10202000BAE73D005246ABE73D0021005246A7E724
:102030003B0C9C462A04120C2B0C1400604665468F
:102040003F043F0C7C4342435D437B43270C9B187A
:10205000FF18BA4203D980235B029C4665442404DE
:102060003A04240C121993015C1EA3413F0C920EFA
:102070007D191A43AD0115432B0104D501235E469A
:102080006A081D40154332007F32002A25DD6B07A8
:1020900004D00F232B40042B00D004352B0103D593
:1020A0003200274B80321D40FE2A94DC0124A80117
:1020B000400AD2B20C406FE78020C003074207D02D
:1020C000054205D128434002400A4446FF2263E707
:1020D00038434002400AFF225EE70124A31A1B2B6B
:1020E00005DD0C400022002056E75E46CBE72A00C3
:1020F0002020DA40C31A9D402B005D1EAB411343E4
:102100005A0704D00F221A40042A00D004335A017F
:1021100004D5012401220C4000203DE701249B014D
:10212000580A0C40002237E780200124C0032843CE
:102130004002400A0C40FF222EE7C046F450000047
:10214000FFFFFFF7F0B54F46D64646464400C0B500
:10215000C20F47024802400A844666467B0A48008E
:10216000C90F9A46240E1500DB00000E8946F600C2
:10217000FF2800D18FE001214F464F4039009142A6
:1021800066D0221A002A00DC9DE000283DD1002EF6
:1021900000D18BE0511E002900D0B5E001249B1B2B
:1021A0005A0144D59B019F09380001F03FFC0538D6
:1021B0008740844200DD96E0041B3A002020013471
:1021C000E240041BA7403B005F1EBB4100241343B9
:1021D0005A0704D00F221A40042A00D004335A01AF
:1021E00027D50134FF2C00D179E001229B015B0A45
:1021F000E4B22A405B02E405580AD20720431043A8
:102200001CBC90469946A246F0BDFF2CE0D0802130
:10221000C9040E431B2A7BDC31002020D140821AE6
:102220009640721E96410E439B1B5A01BAD45A0720
:10223000D0D10122DF082A40FF2C33D1002F00D15A
:10224000A8E08023DB033B435B025B0AFF24D1E76A
:10225000211A00294CDD00282AD0FF2CB8D080207C
:10226000C00406431B2900DDAFE030002027C84032
:10227000791A8E40711E8E4106439B195901D6D59D
:102280000134FF2C00D185E001227A491A405B0815
:102290000B4013439CE7002E00D070E76BE73B1E1A
:1022A000C5D100227B025B0AE4B2A3E714008FE7EA
:1022B000002E4DD0481E002857D19B1901245A01E9
:1022C000B5D50224E0E7002A25D1621CD2B2012A4A
:1022D00072DD9F1B7A0135D5F71A0D0064E70122E4
:1022E00000232A4086E73B00634A241A13406FE725
:1022F00000296CD1611CC8B201284EDDFF2949D0EC
:102300009B195B080C0063E7FF2A41D00A0081E7B4
:1023100001269B1B89E7002C1CD0FF2821D080249C
:10232000E404524223431B2A00DD96E01C002025D2
:10233000D440AA1A93405A1E93412343F31A04002F
:102340000D002DE7002F00D02EE700220024A9E782
:102350000C003DE7002B58D0D243002AEED0FF28D6
:10236000E1D13300FF240D0032E7FF2910D0010036
:1023700078E7002B6ED0FF24002E00D128E78022C2
:102380005146D203114203D06146114200D13300BD
:10239000FF241DE7FF2400232CE7002CE9D1002BAC
:1023A00063D0002E00D113E79B195A0100D43EE7F9
:1023B000314A0C0013400BE7002C1ED1002B2FD10B
:1023C000002E4FD033000D0002E7012655E7002C08
:1023D0001FD1002B43D0C94300290BD0FF2839D08F
:1023E0001B2944DC1C002027CC40791A8B40591E45
:1023F0008B4123439B19040040E7002B1AD1002E88
:1024000024D180270022FF031BE7330004000D00C6
:10241000DEE6FF281ED08024E40449422343DFE7A0
:10242000002E00D1D4E69F1B7A0100D437E7F31ABF
:102430000D00CDE6FF24002E00D1C9E680225046D3
:10244000D2031042A4D060461042A1D133000D0047
:10245000FF24BDE63300FF24BAE601236EE7330014
:102460000400B5E6002700221CE73300B0E6012394
:10247000C0E7C046FFFFFF7DFFFFFFFB41024300B7
:10248000C20F490A1B0E00207E2B0DDD9D2B0CDC9C
:10249000802000040143952B0ADC9620C31AD94002
:1024A0004842002A00D108007047034BD018FBE7D0
:1024B000963B9940F4E7C046FFFFFF7F70B50028C8
:1024C00030D0C317C4185C40C50F200001F0AEFA2D
:1024D0009E231B1A962B0DDC9622D21A94402A00BA
:1024E0006402640ADBB26402DB05600AD2071843A7
:1024F000104370BD992B19DC9922D21A002A29DDCC
:1025000094402200144C1440510704D00F210A407B
:10251000042A00D00434620113D4A401640ADBB29B
:102520002A00E0E7002200230024DCE70522210046
:10253000121AD140B922D21A9440621E94410C431F
:10254000DAE7054B2A001C409F23A4011B1A640AEA
:10255000DBB2C8E72200D5E7FFFFFFFB10B5041E82
:1025600027D001F063FA9E231B1A962B0ADC9622D1
:10257000D21A94406402640ADBB26402DB05600A8A
:10258000184310BD992B17DC9922D21A002A27DD97
:1025900094402200134C1440510704D00F210A40EC
:1025A000042A00D00434620112D4A401640ADBB20C
:1025B000E3E700230024E0E7B9222100D21A91408A
:1025C0000A00511E8A410521091ACC401443DBE759
:1025D000044B1C409F23A4011B1A640ADBB2CCE706
:1025E0002200D7E7FFFFFFFBF0B557464546DE4622
:1025F0004E46E0B54C000E0387B0834692461D0060
:102600008046360B640DCF0F002C4FD06F4B9C4291
:1026100035D08023420F1B04F60013433343994601
:10262000C30098466A4B00269C46002364440393EB
:102630002B031B0B9B466B00ED0F50465B0D01956A
:102640005ED0624A934253D05A46D1008022400F56
:10265000120402430A4393465246D1005C4A944610
:10266000002263443800684084460290E41A16430E
:102670000F2E00D9B4E0574BB6009B599F4603007C
:10268000334399466CD100239846023308260393BE
:10269000CEE7CB464146039A0197022A65D1019BBA
:1026A0004A4C9C460023002298466BE003003343CB
:1026B00099464ED0002E00D1BCE1300001F0B6F9B1
:1026C00003000B3B1C2B00DDACE11D22D31A5A4644
:1026D0000100DA4008398E401300334399465B46C7
:1026E0008B40984600233C4C0026241A03939FE716
:1026F00051465A46114329D1002293460232B1E78E
:10270000594601431ED05B46002B00D19EE158463E
:1027100001F08CF903000B3B1C2B00DD8FE1020064
:102720005946083A91408B461D21CB1A5146D94053
:102730000B0059460B4351469B469140264B0022C5
:102740001B1A8FE7002301229B468BE75146032289
:1027500088E700239846013304260024039367E7A3
:102760000323B14603930C2662E7032A00D15CE2FF
:10277000019B012A00D0E4E113409C460023002481
:102780000022984600211203130B0A0D12051A436A
:102790002305124C40462240134362465B00D20799
:1027A0005B081343190007B03CBC90469946A2460B
:1027B000AB46F0BD002380229C4612039846034C92
:1027C000E0E70023014C00229846DBE7FF0700000A
:1027D00001FCFFFF345100000DFCFFFFFFFF0F80E5
:1027E000D94500D939E100D134E1002346464D46B0
:1027F0009A46013C5B460A0E1B021A430B02170C59
:10280000039313041B0C3900280090460193FFF733
:10281000EBF90200019B83465A4328003900914698
:10282000FFF768FA350C09040D43A9450DD95B463D
:102830004544013BA84500D93AE1A94500D837E114
:1028400002235B429C464544E3444B46EB1A390065
:1028500018000493FFF7C8F9019B050043433900B2
:1028600004989946FFF746FA330409041B0C0B43FE
:10287000994509D943446A1E984500D91AE19945FA
:1028800000D817E1023D43444A469B1A5A461204B7
:102890002A4303999346100C0A0C914609045A46A0
:1028A000090C4E460D001204120C4543059151438C
:1028B0007243704352190E0CB218954203D9802509
:1028C0006D02AC466044150C09041204090C28186A
:1028D0005218834200D2CEE000D1C8E01D1A534600
:1028E0009E1AB24592415242AB1A9A46984500D17F
:1028F00017E139001800FFF777F9019B0500434302
:10290000390050460493FFF7F5F904980B04310C95
:102910001943884209D941446B1E884500D907E113
:10292000884200D804E1023D4144049BCB1A1800C0
:1029300039000493FFF758F9019B8246434339005D
:1029400004980193FFF7D6F901980B043104090CA0
:10295000194388420DD953464144013B884500D96B
:10296000E8E0884200D8E5E002235B429C4641440F
:10297000E244019B2D04CE1A51462943059D4F4642
:102980002A000B04080C1B0C5A4345437B43784335
:102990005B19170CFB189D4203D980256D02AC46CC
:1029A00060441D0C12041B04120C28189B1886424C
:1029B00000D293E000D18EE001231943A04BE3182D
:1029C000002B00DC99E04A0700D09EE05A46D20175
:1029D00006D55A469B4B1A4080239346DB00E318EA
:1029E000994A934268DD0123029A984C1A400023C9
:1029F000944698460022C5E680224B4612031342B5
:102A00000AD05B46134206D11A431203120BAC469E
:102A100088468E4CB6E64B461A431203120BBC4650
:102A20008A4CAFE603005A46283B9A400023914661
:102A3000984657E6584600F0F9FF203040E603007C
:102A40005246283B9A400021934677E600F0EEFF7D
:102A500020305FE6884500D2C7E64B46DE075D08BA
:102A600043465B081E434346DB079A46C2E6002501
:102A7000924500D333E7039E5946B446E244B2453B
:102A8000AD416D424544EB180139984507D2984253
:102A900000D97FE000D1BCE01D1A8B461FE79845A6
:102AA000FAD1039D5545F2D943468B461D1A16E7C8
:102AB0009B46CAE61500E7E65A46C90852070A438C
:102AC0005B0590465C0D5A4601230299520219405B
:102AD000120B8C4656E6002B00D16FE746444A1E87
:102AE000B04529D91100864200D065E7039A934288
:102AF00000D061E762E7012149420120C21A382A69
:102B000021DD029B03409C4638E60F220A40042A3E
:102B100000D15BE70A00111D914292415242934459
:102B200054E7474BE318002BE5DD01225242F2E760
:102B30001D00FAE69A461CE7B04239D86ED0110063
:102B40003AE702933AE71F2A3CDC20239B1A0C0049
:102B50005846994098404B1E99415B46D440D3401B
:102B6000204308431A00430709D00F230340042BD6
:102B700005D00100081D88429B415B42D218130218
:102B80003AD50123029A01241A400023944698461C
:102B90000022F7E5022149428C46039DE344AC46FE
:102BA000E244AA45AD416D424544ED182D1A96E622
:102BB0008A1E03994D008D4289414942414476184D
:102BC00003958FE71F204042C31A5846D8400300A0
:102BD000202A28D040205D46821A954029434A1E6B
:102BE00091411943072300220B4009D00F230022F3
:102BF0000B400800042BBDD1010053075202120BF9
:102C0000C9081943012388460299002419408C46BB
:102C1000B8E55245BED88B46002560E6039D9D422F
:102C2000C6D3110062E70025D8E780225B46120375
:102C30001A43019B1203120B9C468846034CA1E5E4
:102C4000FF030000FFFFFFFEFE070000FF0700007C
:102C5000F0B557464546DE464E46E0B50C0398466D
:102C60004E00230B87B0070092469B46760DCD0F92
:102C7000002E6BD06D4B9E4235D080245B46420FB8
:102C80002404DB0014431C43C3009946684BA3464D
:102C90009C46002300276644029343461C035A00C7
:102CA000DB0F5046240B520D984600D176E05F4B67
:102CB0009A426DD08023410F1B040B435C49E40012
:102CC0008C461C43C300002062444146B61869404C
:102CD000721C0191944607430F2F00D9B0E0554A6A
:102CE000BF00D25997465B460343994600D087E020
:102CF00000239B46023308270293CEE74246019207
:102D0000022867D0032800D10EE2012800D062E13A
:102D1000002300240022994601990140CDB20021F0
:102D200012030B0D120B1B051343434A24051340DA
:102D30001C436400ED0764082C434846210007B09B
:102D40003CBC90469946A246AB46F0BD034399462B
:102D50004FD05B46002B00D189E1584600F066FE5B
:102D600003000B3B1C2B00DD7AE11D22D31A3A0035
:102D700001005C46DA4008398C4013008F40234341
:102D80009B46B94600232D4E0027361A029384E74E
:102D9000534623432AD10024022096E75346234377
:102DA00020D0002C00D157E1200000F03FFE0300AE
:102DB0000B3B1C2B00DD49E11D21CB1A51460200C3
:102DC000D9405346083A944093400C431B4A121A88
:102DD00000207AE70125019B144C1D4000230022AE
:102DE00099469CE70024002201206EE75346032009
:102DF0006BE700239B4601330427002602934CE730
:102E0000032381460C27029347E7802200230025F5
:102E100012039946054C82E75C464B4602986FE7E1
:102E20005C464B46019502986AE7C046FF070000E2
:102E300001FCFFFF74510000FFFF0F800DFCFFFF3E
:102E40004A464946170C1A0C1B041B0C08041900AF
:102E5000000C41431500884619007D4379430395D2
:102E600089462900150045434D44029545462D0CE1
:102E7000AA46029D5544A94506D98A4680214902A1
:102E80008946CA4451460391290C049141460904DC
:102E90002D04090C88462900250C24044144240CE7
:102EA0000591210041438846210079438A466843C1
:102EB000414650448146080C48446F43824503D93B
:102EC0008021490289464F44010C89463900494412
:102ED000029141460F0404993F0C88460004C01932
:102EE00080444146049159460F0C0904090C884658
:102EF00059438A4639005143894641464A4351461F
:102F0000090C8B467B43D2185A44934203D9802341
:102F10005B029B46D94451460904090C8A46414646
:102F200061437C43130C12044B445244A1468A462D
:102F30003C0041466C434D4351464D440F0C7D19B6
:102F4000A94503D98021490288464444049F039936
:102F5000B84641448B4683458041414288465146AC
:102F600008042F04000C3F1858460299101889468F
:102F7000904292414F44BA46524299469346C244C7
:102F8000D144CB448F42BF41C245894199459B41C1
:102F9000934592417F4249422D0C52420F435B427E
:102FA00013437F19FF185B463C19DB0D059A640239
:102FB0001C43430213435D1EAB415A46C00D0343FD
:102FC00052021343E20156D501205A08034013432D
:102FD000E207134364085A48604400284DDD5A074D
:102FE00009D00F221A40042A05D01A1D9A429B418B
:102FF0005B42E4181300E20104D58020514AC0006E
:1030000014406044504A904200DDE3E60125DB08AD
:1030100062071A436402019B9146220B4405640D2A
:103020001D407CE6802259461203114208D014420A
:1030300006D122431203120B45469946434C6EE6D5
:103040005B461A431203120B404C68E603005446D9
:10305000283B9C400023B9E600F0E8FC2030A6E6BF
:103060000300283B9F400023BB4699468AE600F0B8
:10307000DDFC203074E6B446ADE701252A1A382A73
:1030800006DD019B00241D4000230022994646E6F0
:103090001F2A21DC20252000AD1A1E00AB40A840CD
:1030A000D6405D1EAB4130431843D440430709D09E
:1030B0000F230340042B05D00300181D98429B41A9
:1030C0005B42E418230221D50125019B01241D4008
:1030D00000230022994622E61F2521006D42281A6E
:1030E000C1400800202A1DD05F35AA1A944023430E
:1030F0005C1EA341072503431D400022002D09D07B
:103100000F2200241A401800042AD6D103006507B4
:103110006402220BDB082B4301259946019B002406
:103120001D40FCE50024E2E7802201251203224332
:1031300001991203120B0D409946044CEFE5C0466D
:10314000FF030000FFFFFFFEFE070000FF07000077
:10315000F0B54646D6464F460C03C0B5CD0F4E00DF
:10316000610A440F0C43C1005800400D84468A4652
:103170000F001903500F490A0143C648760DA846AF
:10318000DB0FD200844500D1D8E001204340AB42A0
:1031900000D1A6E06046351A002D00DC05E10028CC
:1031A00010D10B00134300D1D7E06B1E002B00D0D1
:1031B0004BE153469F1ABA458041641A4042241A93
:1031C00001261EE0B34B9E4248D080231B041943C6
:1031D000382D00DD19E11F2D00DD4CE120230F000B
:1031E0005B1B10009A409F40E840531E9A41E94003
:1031F000074317435346DF1B611ABA45A441644293
:103200000C1B230200D4C5E06402650A002D00D126
:10321000F6E0280000F00AFC0300083B1F2B00DD4D
:10322000E9E020223C00D21A9D40D4409F40254333
:103230009E4200DDDBE09E1B731C1F2B00DD0AE1BC
:1032400020223800D21A290097402C009140D84003
:103250007A1E9741DC40002601430F437B0709D0CB
:103260000F233B40042B05D03B1DBB42BF417F4297
:10327000E4191F00230225D5864B01369E4200D15A
:10328000AFE0854B01251C4043466207FF086402FE
:1032900076051743240B760D1D4000212403230BD4
:1032A0000C0D7E4A24051C431440330523435B0068
:1032B000ED075B082B43380019001CBC904699466B
:1032C000A246F0BD012543466207FF081743E40804
:1032D0001D40704B9E4236D024037605240B760D9C
:1032E000DBE76346F31A002B00DC94E0604600281D
:1032F00035D068488642B1D080273F043943382B07
:1033000000DCFDE00A43170000217A1E9741574474
:1033100057458041091944420C1923023AD55D4BA7
:1033200001369E4200D14BE101225B4B1C407B08E1
:1033300017401F43E207174364088FE70800104354
:1033400000D024E721E723003B4300D1B9E18022EC
:10335000120314432403240B9FE72E007EE708008A
:10336000104300D1CAE0581E8446002800D0E7E090
:1033700052445245804164184042241817000126E7
:10338000230207D50226CFE764462C4300D1B3E1E0
:103390002C0067467B0700D062E76307FF081F43E6
:1033A00001254346E4081D4093E7002D78D1751CA4
:1033B0006D056D0D012D00DCF2E05046801A82454E
:1033C000BF41651A7F42ED1B8446280200D48CE081
:1033D0005046171ABA4292410C1B5542651B98463B
:1033E00014E70125434600241D40002755E72A4CD9
:1033F000F61A2C4032E73D0028388540002717E7B1
:10340000380000F013FB203006E70A4317000021C4
:103410007A1E9741EEE6002B00D0E5E0731C9C4637
:103420005B055B0D012B00DC9FE01A4B9C4500D136
:10343000C5E0524452458041641840422418E707D1
:10344000520817436408664608E71248854200D1CF
:1034500085E01D00BCE629001F3EF140202B00D175
:103460007FE04022D31A9D402F437D1EAF410024B0
:103470000F4300268EE72B000F00203BDF40202D5E
:1034800071D040235D1BA9400A43511E8A4100218F
:103490001743AFE6FF070000FFFF7FFFFFFF0F802E
:1034A000002E3ED0B34EB44545D0802636046D4242
:1034B0003443382D00DDA8E01F2D00DD1FE120265C
:1034C00027005046761BB740E84007435046B040BF
:1034D000461EB041EC403843171ABA4292410C1BC9
:1034E0005242A41A664698468BE6644667462C43C9
:1034F00000D08BE6002500260027EAE61E00ADE698
:103500001F2B60DC2027F81A0F008446874010002C
:10351000D840074360468240501E8241D94017433D
:10352000F5E626005046064305D0ED43002DD3D0E6
:10353000904EB445BDD10C001700664698468DE606
:103540008C4883420BD06346D9E6002D00D096E02C
:103550000800104300D1E2E00C0017009846854EA9
:103560007CE6002580E700218EE7230050460343D8
:10357000002E00D0A8E0002B00D1DEE00B001343AA
:1035800000D16BE6524452458041641840422418F1
:103590001700230200D4FDE6774B66461C405DE62B
:1035A000250050460543002ECFD1002D4FD10C00F1
:1035B000144300D1A0E00C00170098464EE6664682
:1035C0000024002785E61F000800203FF840070080
:1035D000202B00D18EE04020C31A99400A43511E8F
:1035E0008A410021174392E6002E14D1260050464E
:1035F000064362D0DB43002B5CD18718974292418F
:1036000064185242A418664687E650462043441E7A
:10361000A041002460E7574EB4454ED080263604C2
:103620005B423443382B00DD7FE01F2B00DD8BE055
:10363000202627005046F61AB740D8400743504688
:10364000B040461EB0410743DC40BF18D6E70D002E
:10365000154300D102E65046801A8245BF41651AE3
:103660007F42ED1B8446280200D48DE65046171A8F
:10367000BA4292410C1B5242A41A9846EEE50D0044
:10368000154300D16BE750466707C0080743802009
:10369000E4080003044207D0CD08054204D12C0001
:1036A0009846D70849070F437B0FE4001C43FF00EF
:1036B000304ED3E52F4EB445B4D10C00170066460A
:1036C000CCE500270024E8E5002B39D00B0013439C
:1036D00000D144E7C008670707438020E4080003DF
:1036E0000442E1D0CB080342DED1D70849070F439B
:1036F0001C00D9E7002171E700250027E9E52E002D
:103700002700203EF740202D2FD04026751BAC40CF
:1037100050462043441EA04100243843DCE6802468
:1037200000252403134E0027D3E55046204307000D
:10373000781E87410024BF1860E70C0017008DE554
:103740000C0017000B4E89E51E002700203EF740B5
:10375000202B0CD04026F31A9C4050462043441E98
:10376000A04107430024BF1848E70024D0E7002405
:10377000F3E7C046FF070000FFFF7FFF70B500289A
:1037800030D0C317C4185C40C50F200000F04EF9BC
:10379000174B184A1B1AD21A1F2A18DD164AD21ABA
:1037A0009440002224035B05240B5B0D00211000D4
:1037B00024030A0D240B12052243104C1B05224042
:1037C00013435B00ED075B082B43190070BD21001C
:1037D00091400A000B21081AC4405B052403240B06
:1037E0005B0DE3E70025002300240022DEE7C0464E
:1037F0001E0400003304000013040000FFFF0F80CC
:103800004100090E4B1C70B5DBB24602750AC40FAD
:10381000012B14DDE0239B006D07360BCB18002134
:103820000A0D280012051C4D32435B052A405B0837
:1038300013435B00E4075B082343190070BD0029B4
:1038400014D1002D1ED0280000F0F0F80A281CDC4E
:103850000B232A001B1ADA40030015339D400F4B3F
:1038600012031B1A5B05160B5B0DD8E7002D06D063
:10387000320B802636036D071643094BCFE7084B02
:103880000026CCE700230026C9E703002A000B3BF3
:103890009A400025E3E7C046FFFF0F808903000040
:1038A000FF070000F0B54C00640D0B03621C450FD0
:1038B0005B0A52052B43C90FC500520D012A28DDB2
:1038C0003A4AA618FE2E1BDC002E3EDD80010200C7
:1038D000501E82416D0F2A43DB0013435A0704D068
:1038E0000F221A40042A00D004338022D2041A4046
:1038F0005AD00136FF2E03D09B015B0AF4B201E0DF
:10390000FF2400235802E405400AC9072043084366
:10391000F0BD002C07D01D43F2D08020DB008004D6
:103920000343FF26DAE72B4303D00523DB08FF2CF4
:1039300003D05B025B0AE4B2E4E7002B32D08020C4
:10394000C00303435B025B0ADCE73200173214DB7F
:1039500080221E2712041343BF1B1F2F0FDC144AA3
:10396000944664442A00A5402E00A340751EAE4133
:10397000FA40334313430026B0E70024D5E7022280
:103980005242961B1A00F240202F09D00948844663
:103990006444A3402B435D1EAB41002613439DE7C7
:1039A0000023F7E70023ADE73400BFE780FCFFFF0B
:1039B00082FCFFFFA2FCFFFF8446081C6146FFE774
:1039C0001FB500F0B7F8002801D40021C8421FBD80
:1039D00010B500F049F84042013010BD10B500F0BC
:1039E000A9F8002801DB002010BD012010BDC04651
:1039F00010B500F09FF8002801DD002010BD012067
:103A000010BDC04610B500F055F8002801DC0020BC
:103A100010BD012010BDC04610B500F04BF80028C5
:103A200001DA002010BD012010BDC0461C21012379
:103A30001B04984201D3000C10391B0A984201D391
:103A4000000A08391B09984201D30009043902A26F
:103A5000105C40187047C0460403020201010101D6
:103A6000000000000000000070B5420045024E0258
:103A70004C00C30F6D0A120E760A240EC90F0120E6
:103A8000FF2A06D0FF2C03D0A24201D1B54206D0B6
:103A900070BD002DFCD1FF2CFAD1002EF8D18B4245
:103AA00006D00120002AF3D12800451EA841EFE7E7
:103AB0000020EDE7F0B5420045024C02C30F48007C
:103AC0006D0A120E640A000EC90FFF2A1ED0FF28CD
:103AD00021D0002A0AD16E426E41F6B200280FD1E1
:103AE000002C0DD10020002D09D005E0002801D1C7
:103AF000002C01D08B4211D0012158420843F0BD67
:103B0000002EF7D0012001390843F8E7002DDED060
:103B100002204042F3E7002CDBD0F9E78242EBDCE5
:103B200004DBA542E8D80020A542E8D20121581EB6
:103B30000843E4E7F0B542004D024C004602760A25
:103B4000120EC30F6D0A240EC90FFF2A16D0FF2CC8
:103B500018D0002A0AD170427041C0B2002C15D092
:103B6000002805D0012001390843F0BD002C13D0F6
:103B7000994214D001205B421843F6E70220002E40
:103B8000F3D1E4E70220002DEFD1E2E7002DE7D1E9
:103B90000020002EE9D0EDE7002DE9D1EAE7A242AE
:103BA00006DCDFDBAE4203D80020AE42DAD3DCE72E
:103BB000012049420843D8E770B500260C4D0D4C52
:103BC000641BA410A64209D1002601F03FFB0A4D58
:103BD0000A4C641BA410A64205D170BDB300EB587B
:103BE00098470136EEE7B300EB5898470136F2E705
:103BF0005852000058520000585200005C52000019
:103C000003008218934200D1704719700133F9E71D
:103C10000FB40B4B13B51C68002C05D0A369002B07
:103C200002D1200000F0AAFA05AB049AA168200096
:103C3000019300F0E5FD16BC08BC04B01847C0466F
:103C4000000000204A424A41802310B55200DB00A8
:103C500000F002F810BD0000F0B51D004F4B85B01C
:103C60001E6804000F000092002E05D0B369002BDF
:103C700002D1300000F082FA494B9C4250D1746866
:103C8000009B022B05D0012B00D984E0002D00DA27
:103C900081E02100300000F003FA616B002908D0B8
:103CA00023004433994202D0300000F073FB00231C
:103CB00063630023A3616360A3891B0603D52169A5
:103CC000300000F067FBA389364A1340A381009BB4
:103CD000022B5AD003AB02AA2100300000F0E4FA14
:103CE000A3891843A081002D24D1029D280000F053
:103CF00047FB0195071E42D1029B0193AB4239D18C
:103D0000012040420223A2891343A3810023A36020
:103D100023004733236023610123636105B0F0BDB5
:103D2000214B9C4201D1B468AAE7204B9C42A7D109
:103D3000F468A5E7002FD9D0B369002B02D1300079
:103D400000F01CFA009B012B03D1A389009A1A43AF
:103D5000A2810820A389276027616561184018D0D7
:103D6000012018400023984211D06D42A360A56144
:103D70001800D3E7019800F003FB071EC0D0802392
:103D8000A289019D1343A381D6E70020BAE7A5606D
:103D9000C4E7A060C2E701204042BFE70000002066
:103DA000D85100005CF3FFFFF8510000B85100004B
:103DB0000EB410B59DB002A9029008610B48822490
:103DC00088604861012040421FABC881084804CB8D
:103DD000A400006801938C8100F0E6FB0023029AA6
:103DE00013701DB010BC08BC03B01847FFFFFF7F65
:103DF00000000020F8B505000E001400002804D0D3
:103E00008369002B01D100F0B9F9224B9C422DD1DE
:103E10006C68A369A360A3891B0731D52369002BB4
:103E20002ED023682269F7B2981A6369F6B29842D5
:103E300005DB2100280000F033F9002826D1A36813
:103E40000130013BA36023685A1C22601F70636924
:103E5000984204D0A389DB071AD50A2E18D1210075
:103E6000280000F01DF9002812D00FE00A4B9C42F8
:103E700001D1AC68CDE7094B9C42CAD1EC68C8E7D8
:103E80002100280000F00CF80028CAD00126764254
:103E90003000F8BDD8510000F8510000B8510000C2
:103EA000364B70B51D6806000C00002D05D0AB69BF
:103EB000002B02D1280000F061F9314B9C420FD158
:103EC0006C680C23E25E93B219072DD4D90611D485
:103ED00009230120336037331343A381404270BD6F
:103EE000284B9C4201D1AC68EBE7274B9C42E8D1C0
:103EF000EC68E6E75B0713D5616B002908D0230067
:103F00004433994202D0300000F044FA0023636346
:103F10002422A3899343A381002363602369236040
:103F20000823A2891343A3812369002B0BD1A0216D
:103F30008022A389890092000B40934203D0210084
:103F4000300000F0D9F90123A289134011D00023D9
:103F5000A36063695B42A361002023698342BED1F1
:103F60000C23E25E1306BAD540231343A381013824
:103F7000B5E7920700D46369A360EDE70000002075
:103F8000D8510000F8510000B8510000F7B58A89F7
:103F900005000C00130760D44B68002B04DC0B6C8D
:103FA000002B01DC0020FEBDE76A002FFAD00023C1
:103FB0002E682B6080235B011A4034D0606DA3898A
:103FC0005B0706D56368C01A636B002B01D0236CB6
:103FD000C01A0200216A00232800E76AB847A189B5
:103FE000431C06D12B681D2B31D82C4ADA40D3074D
:103FF0002DD50023636023692360CB0405D5431CC2
:1040000002D12B68002B00D16065616B2E60002906
:10401000C8D023004433994202D0280000F0BAF9F6
:1040200000206063BFE70123216A2800B847431CD2
:10403000C5D12B68002BC2D01D2B01D0162B01D16E
:104040002E60AFE74023A2891343A381ABE740234F
:104050000B430120A3814042A5E70F69002FA1D0A7
:104060000B680F60DB1B01930023920700D14B69A3
:10407000A360019B002B00DC94E7019B3A00216ABE
:104080002800A66AB047002803DC4023A289134316
:10409000DFE7019B3F181B1A0193EAE7010040206C
:1040A0000B6970B505000C00002B01D1002070BD1C
:1040B000002804D08369002B01D100F05FF80B4B7E
:1040C0009C4209D16C680C22A35E002BEED021002B
:1040D0002800FFF75BFFEAE7054B9C4201D1AC6883
:1040E000F1E7044B9C42EED1EC68ECE7D8510000BC
:1040F000F8510000B851000010B5024900F0B2F8C4
:1041000010BDC046A1400000002310B504000360AC
:104110004360836081814366C2810361436183613F
:10412000190008225C30FFF76BFD054B24626362C7
:10413000044BA362044BE362044B236310BDC046EF
:104140006D4D0000954D0000CD4D0000F94D000073
:1041500070B568254A1E55430E002900743100F0E1
:1041600063F9041E08D000212A00016046600C306B
:10417000A0606832FFF744FD200070BD836913B56D
:104180000400002B28D18364C3640365134B144AD5
:104190001B6882620193984201D101238361200050
:1041A00000F020F86060200000F01CF8A060200003
:1041B00000F018F80022E06004216068FFF7A4FF17
:1041C00001220921A068FFF79FFF02221221E06867
:1041D000FFF79AFF0123A36113BDC046B45100004D
:1041E000F9400000F8B51E4B07001E68B369002BAC
:1041F00002D13000FFF7C2FF4836B4687368013B54
:1042000004D53368002B07D03668F6E70C22A55E8C
:10421000002D0DD06834F2E704213800FFF798FF35
:1042200030600028F0D10C2304003B602000F8BD72
:10423000012320005B42E3810233A3816566256090
:10424000A560656025616561A561082229005C3073
:10425000FFF7D6FC6563A563A564E564E6E7C046A1
:10426000B4510000F7B5040007000026019148345E
:10427000002C01D13000FEBD6368A5680093009B4F
:10428000013B009301D52468F2E7AB89012B08D9E3
:104290000E22AB5E013304D029003800019B984701
:1042A00006436835EBE7000070B50E001D000E23D5
:1042B000C95E90B01400002907DA00232B60B3898F
:1042C0001B0611D48023DB000FE001AA00F0C0FD23
:1042D0000028F2DBF022029B12021340054A9B18D1
:1042E0005A4253412B60EDE740230020236010B079
:1042F00070BDC04600E0FFFFF7B502268B890500C0
:104300000C00334206D0230047332360236101238E
:104310006361F7BD01AB6A46FFF7C6FF009907006E
:10432000280000F081F8002808D10C22A35E9A052D
:10433000EFD4032293431E43A681E4E70F4BAB6205
:104340008023A28920601343A381009B20616361C5
:10435000019B002B0DD00E23E15E280000F08AFDAA
:10436000002806D00322A38993431A000123134394
:10437000A381A0893843A081CBE7C046F940000063
:1043800010B5034B0100186800F04EF810BDC04690
:104390000000002070B50500002910D00C1F236814
:1043A000002B00DAE418280000F0B0FD1D4A136865
:1043B000002B05D163601460280000F0A8FD70BDDB
:1043C000A34209D9216860188342F3D118685B6859
:1043D00041182160EEE713005A68002A01D0A2427A
:1043E000F9D919685818A0420BD120680918581833
:1043F00019608242E0D110685268411819605A6011
:10440000DAE7A04202D90C232B60D5E721686018B7
:10441000824203D1106852684118216062605C607A
:10442000CAE7C046B4000020032370B5CD1C9D43ED
:10443000083506000C2D1ED20C25A9421DD83000CF
:1044400000F064FD254A14682100002919D1244C8C
:104450002368002B03D1300000F076FC2060290097
:10446000300000F071FC431C2CD10C233000336071
:1044700000F04DFD03E0002DDFDA0C233360002057
:1044800070BD0B685B1B1AD40B2B03D90B60CC18C7
:10449000256003E08C420ED163681360300000F0A9
:1044A00036FD200007220B30231D9043C31AE7D0AE
:1044B0005A42E250E4E74B6863600C00EEE70C0000
:1044C0004968C2E70323C41C9C43A042E0D0211AE0
:1044D000300000F039FC431CDAD1C6E7B4000020FC
:1044E000B8000020F0B58E6885B007000C0003927C
:1044F00001939E4239D890238A89DB001A4234D036
:104500000325096923685B1A0293636902985D4376
:10451000EB0F5D19019B6D1001331B18AB4200D9E5
:104520001D00530532D529003800FFF77DFF061E18
:1045300009D10C233B6040230120A2894042134350
:10454000A38105B0F0BD029A216900F0C4FCA389E3
:10455000144A1A4080231343A381029B2661F61854
:1045600026606561019EED1AA560019BB34200D2F1
:104570001E0032000399206800F0B6FCA3680020FA
:104580009B1BA36023689E192660DAE72A00380087
:1045900000F0BEFC061EE0D121693800FFF7FAFEEC
:1045A000C7E7C0467FFBFFFFF0B59FB002900593C1
:1045B0008B890F0016001B0611D50B69002B0ED13D
:1045C0004021FFF731FF38603861002805D10C2306
:1045D000029A013813601FB0F0BD40237B610023B5
:1045E00006AD6B6120336B761033AB7634002378E5
:1045F000002B47D1A31B04930DD0A31B320039001D
:104600000298FFF76FFF431C00D1B5E06A69049B75
:10461000944663446B612378002B00D1ACE0012207
:10462000002352426A6002A95432521801342B60AE
:10463000EB60AB601370AB65584E052221783000FB
:1046400000F03EFC621C002820D12968CB0604D56E
:10465000532302AE20309B1918700B0704D5532347
:104660002B2002AE9B19187023782A2B16D000201D
:104670000A21099B2278303A092A55D9002815D0F9
:10468000099313E0252BB5D00134B0E70123801B3B
:104690008340296814000B432B60CDE7059B181D50
:1046A0001B680590002B39DB0993140023782E2B0F
:1046B0000BD16378621C2A2B3ED1059B02341A1D54
:1046C0001B680592002B34DB0793354E21780322BB
:1046D000300000F0F5FB002806D04023801B83400B
:1046E0002A68013413432B60217806222D48661C6A
:1046F000297600F0E5FB002846D02B4B002B2FD16C
:104700002968059B0722C90528D59B1893430833C0
:1047100005936B69039A9B186B6167E75B42EB60DB
:1047200002230B432B60C0E74B4301349B1801204D
:10473000A0E701235B42C7E7002314000A201A0008
:104740006B6021783039092903D9002BBDD007923D
:10475000BBE74243013452180123F2E70733D5E7A0
:1047600005AB00933A00114B2900029800E000BF0E
:104770000390039B0133CCD1BB890B985B0600D41B
:1047800029E70120404226E705AB00933A00074B9A
:104790002900029800F0BEF9EAE7C046185200006E
:1047A0001E5200002252000000000000E5440000FC
:1047B000936810B5013B9360002B05DA9469A3421E
:1047C00008DBCBB20A2B05D01368581C1060197097
:1047D000C8B210BDFFF70EFBFBE7F8B506000F00EF
:1047E0001400D518AC4201D1002007E021783A002E
:1047F0003000FFF7DDFF0134431CF3D1F8BD0000AA
:10480000F0B59FB006000F0014000593002804D0F7
:104810008369002B01D1FFF7B1FC7F4B9F425CD134
:104820007768BB891B0762D53B69002B5FD00023EB
:1048300006AD6B6120336B761033AB760294029C2D
:104840002378002B5DD1029BE31A04930DD0049BC7
:10485000029A39003000FFF7C0FF431C00D1CCE0C2
:104860006A69049B944663446B612378002B00D1F2
:10487000C3E00122002352426A6002A95432521856
:1048800001342B60EB60AB601370AB6521780522BF
:10489000624800F015FB631C9C46002835D129684E
:1048A000CB0604D5532302AA20309B1818700B079F
:1048B00004D553232B2002AA9B18187023782A2B87
:1048C0002CD000200A21099B2278303A092A00D8EE
:1048D0006BE000282AD0099328E0514B9F4201D178
:1048E000B7689EE74F4B9F429BD1F76899E7390025
:1048F0003000FFF7D5FA002899D0012040421FB0C0
:10490000F0BD252B9FD001349AE7444B2968C01A8B
:10491000012383400B432B606446B7E7059B181DBA
:104920001B680590002B3ADB0993644623782E2BF5
:104930000BD16378621C2A2B3FD1059B02341A1DD0
:104940001B680592002B35DB07932178032236483C
:1049500000F0B6FA002807D0334B2A68C01A40236B
:10496000834013432B6001342178631C06222F48B7
:104970000293297600F0A4FA002844D02C4B002B97
:104980002FD12968059B0722C90528D59B18934379
:10499000083305936B69039A9B186B614FE75B4281
:1049A000EB6002230B432B60BFE74B4301349B18A2
:1049B000012089E701235B42C6E7002314000A2097
:1049C0001A006B6021783039092903D9002BBCD03B
:1049D0000792BAE74243013452180123F2E7073342
:1049E000D5E705AB00933A00124B2900300000E0F8
:1049F00000BF0390039B0133CCD1BB895B0600D57C
:104A00007BE70B987BE705AB00933A00094B290045
:104A1000300000F07FF8ECE7D85100001852000099
:104A2000F8510000B85100001E5200002252000050
:104A300000000000DB470000F7B5150001938A680D
:104A40000B6900900C00934200DA130022002B60E7
:104A500043321278002A01D001332B6023689B0671
:104A600002D52B6802332B60062723681F4027D00E
:104A7000230043331B785A1E93412268920630D498
:104A80002200019943320098089EB047431C25D06C
:104A9000062320682A68E16803400025042B03D11F
:104AA0008D1AEB43DB171D40A3682269934201DD99
:104AB0009B1AED180027BD4220D1002010E00137DD
:104AC000E3682A689B1A9F42D2DA22000123193236
:104AD00001990098089EB047431CF0D10120404244
:104AE000FEBD3020E1184331087021005A1C4531C9
:104AF0000978A218433202331170C1E72200012362
:104B00001A3201990098089EB047431CE6D001373D
:104B1000D1E70000F0B58BB006920A00433207934C
:104B2000059004920A7E0C00109B6E2A00D18FE043
:104B300017D8632A2CD008D8002A00D199E0582A27
:104B400054D026004236327029E0642A01D0692A06
:104B5000F7D121681A68080623D5111D1960156858
:104B600025E0732A00D188E008D86F2A29D0702A5E
:104B7000E7D1202209680A43226003E0752A20D089
:104B8000782ADED122007821453211706C4A30E05B
:104B90000E001A684236111D196013683370012324
:104BA00079E04906D9D5111D19600023D55E002D85
:104BB00003DA2D23049A6D421370624B0A27039384
:104BC0002FE020681968050603D5081D18600D68D8
:104BD00005E04006F9D50D68081D1860ADB2594BC7
:104BE000082703936F2A18D00A2716E045310A7068
:104BF000544A03921A682168101D18601568080647
:104C000022D5CB0702D52023194321601027002D80
:104C100003D1202322689A432260230000224333D9
:104C20001A706368A360002B5CDB04222168914347
:104C30002160002D58D1049E002B64D02600039BD8
:104C400042361B7833705EE04806DAD5ADB2D8E75D
:104C500009681A68080605D5111D1960136862698C
:104C60001A6006E04906F7D5111D19601368A28A7B
:104C70001A800023049E236154E01A68111D1960F4
:104C8000166800216268300000F01AF9002801D08F
:104C9000801B6060636823610023049A137041E005
:104CA0002369320006990598079DA847431C43D005
:104CB000236800259B070FD4099BE06898423DDAE2
:104CC00018003BE022000123193206990598079E3F
:104CD000B047431C30D00135E368099A9B1A9D42C6
:104CE000F0DBE9E7002DA9D0049E28003900FDF78C
:104CF00001F8039B013E5B5C280033703900FCF730
:104D000073FF051EF1D1082F09D12368DB0706D5F3
:104D100063682269934202DC3023013E3370049BB6
:104D20009B1B2361079B09AA00932100069B059802
:104D3000FFF782FE431CB3D1012040420BB0F0BD0F
:104D40003A52000029520000002370B5064C0500BD
:104D500008002360FBF7D6FF431C03D12368002B18
:104D600000D02B6070BDC0463401002070B50C002F
:104D70000E25495F00F0F2F8002803DB636D1B1875
:104D8000636570BDA389024A1340A381F9E7C04659
:104D9000FFEFFFFFF8B51F008B8905000C00160020
:104DA000DB0505D50E23C95E0022022300F074F84E
:104DB000A389054A28001340A38132000E23E15E37
:104DC0003B0000F01FF8F8BDFFEFFFFF70B50C00CF
:104DD0000E25495F00F060F8A389421C03D1054A03
:104DE0001340A38170BD802252011343A3816065EB
:104DF000F8E7C046FFEFFFFF10B50E23C95E00F0D5
:104E000015F810BD70B50500080011000022064C11
:104E100022601A00FCF782FE431C03D12368002B9A
:104E200000D02B6070BDC04634010020002370B557
:104E3000064C050008002360FBF776FF431C03D1F6
:104E40002368002B00D02B6070BDC04634010020C9
:104E5000002370B5064C0500080011002360FBF725
:104E600066FF431C03D12368002B00D02B6070BD6C
:104E700034010020002370B5064C050008002360B3
:104E8000FBF75AFF431C03D12368002B00D02B6093
:104E900070BDC0463401002070B505000800110047
:104EA0000022064C22601A00FBF748FF431C03D186
:104EB0002368002B00D02B6070BDC0463401002059
:104EC000C9B28218904201D10020704703788B420A
:104ED000FBD00130F6E7002310B59A4200D110BD97
:104EE000CC5CC4540133F8E710B5884202D98B1862
:104EF000984208D300239A4207D0CC5CC4540133B3
:104F0000F9E78B5C8354013AFBD210BD70477047C0
:104F1000F8B507000D001600002905D11100FFF7B4
:104F200083FA04002000F8BD002A03D1FFF732FA0B
:104F30003400F7E700F026F82C008642F2D9310061
:104F40003800FFF771FA041EECD029003200FFF799
:104F5000C2FF29003800FFF71DFAE3E770B505002E
:104F6000080011000022064C22601A00FCF7C2FD66
:104F7000431C03D12368002B00D02B6070BDC046BA
:104F8000340100200B1F1B68181F002B01DA0B587F
:104F9000C0187047150100002E2E2F68616C2F730A
:104FA00072632F68616C5F6164635F6173796E63C4
:104FB0002E6300002E2E2F68616C2F7372632F6892
:104FC000616C5F6932635F6D5F73796E632E63003E
:104FD0002E2E2F68616C2F7372632F68616C5F696E
:104FE0006F2E63002E2E2F68616C2F7372632F68F3
:104FF000616C5F75736172745F73796E632E6300A9
:105000002E2E2F68616C2F7574696C732F73726309
:105010002F7574696C735F72696E67627566666519
:10502000722E63000002000000003000000000004B
:105030000619000000000000000000000000000051
:105040002E2E2F68706C2F6164632F68706C5F6107
:1050500064632E63000000000000000004001040A4
:10506000000003005BB10000000000000100000030
:105070001400200000010000FF0000000000D70025
:1050800040420F000000000000000000000000008F
:105090000000000000000000000000000000000010
:1050A00000000000000000002E2E2F68706C2F738F
:1050B0006572636F6D2F68706C5F736572636F6D7F
:1050C0002E63000053656E736F72206465204C750B
:1050D0007A3A2025730D0A0053656E736F7220644F
:1050E000652074656D70657261747572613A202512
:1050F000640D0A0030200000801F0000801F0000A7
:105100007E1F000022200000222000001820000046
:105110007E1F000022200000182000002220000036
:105120007E1F00002820000028200000282000000A
:10513000B8200000E0270000C22700007C27000004
:105140009A2600007C270000B42700007C2700007E
:105150009A260000C2270000C2270000B4270000E2
:105160009A26000092260000922600009226000057
:10517000F8290000402E0000002D0000002D000046
:10518000FC2C0000182E0000182E00000A2E000033
:10519000FC2C0000182E00000A2E0000182E000023
:1051A000FC2C0000202E0000202E0000202E0000ED
:1051B0002430000004000020000000000000000077
:1051C00000000000000000000000000000000000DF
:1051D00000000000000000000000000000000000CF
:1051E00000000000000000000000000000000000BF
:1051F00000000000000000000000000000000000AF
:10520000000000000000000000000000000000009E
:105210000000000000000000232D302B2000686CEF
:105220004C006566674546470030313233343536C9
:105230003738394142434445460030313233343502
:10524000363738396162636465660000F8B5C04678
:10525000F8BC08BC9E467047DD000000F8B5C046AB
:0C526000F8BC08BC9E467047B50000007A
:10526C000400002000000000D8510000F85100009C
:10527C00B851000000000000000000000000000019
:10528C000000000000000000000000000000000012
:10529C000000000000000000000000000000000002
:1052AC0000000000000000000000000000000000F2
:1052BC0000000000000000000000000000000000E2
:0452CC0000000000DE
:00000001FF
